{
  "contractName": "Cajon",
  "abi": [
    {
      "inputs": [],
      "stateMutability": "nonpayable",
      "type": "constructor"
    },
    {
      "anonymous": false,
      "inputs": [
        {
          "indexed": true,
          "internalType": "address",
          "name": "owner",
          "type": "address"
        },
        {
          "indexed": true,
          "internalType": "address",
          "name": "approved",
          "type": "address"
        },
        {
          "indexed": true,
          "internalType": "uint256",
          "name": "tokenId",
          "type": "uint256"
        }
      ],
      "name": "Approval",
      "type": "event"
    },
    {
      "anonymous": false,
      "inputs": [
        {
          "indexed": true,
          "internalType": "address",
          "name": "owner",
          "type": "address"
        },
        {
          "indexed": true,
          "internalType": "address",
          "name": "operator",
          "type": "address"
        },
        {
          "indexed": false,
          "internalType": "bool",
          "name": "approved",
          "type": "bool"
        }
      ],
      "name": "ApprovalForAll",
      "type": "event"
    },
    {
      "anonymous": false,
      "inputs": [
        {
          "indexed": true,
          "internalType": "address",
          "name": "previousOwner",
          "type": "address"
        },
        {
          "indexed": true,
          "internalType": "address",
          "name": "newOwner",
          "type": "address"
        }
      ],
      "name": "OwnershipTransferred",
      "type": "event"
    },
    {
      "anonymous": false,
      "inputs": [
        {
          "indexed": true,
          "internalType": "address",
          "name": "from",
          "type": "address"
        },
        {
          "indexed": true,
          "internalType": "address",
          "name": "to",
          "type": "address"
        },
        {
          "indexed": true,
          "internalType": "uint256",
          "name": "tokenId",
          "type": "uint256"
        }
      ],
      "name": "Transfer",
      "type": "event"
    },
    {
      "inputs": [
        {
          "internalType": "address",
          "name": "to",
          "type": "address"
        },
        {
          "internalType": "uint256",
          "name": "tokenId",
          "type": "uint256"
        }
      ],
      "name": "approve",
      "outputs": [],
      "stateMutability": "nonpayable",
      "type": "function"
    },
    {
      "inputs": [
        {
          "internalType": "address",
          "name": "owner",
          "type": "address"
        }
      ],
      "name": "balanceOf",
      "outputs": [
        {
          "internalType": "uint256",
          "name": "",
          "type": "uint256"
        }
      ],
      "stateMutability": "view",
      "type": "function"
    },
    {
      "inputs": [],
      "name": "baseURI",
      "outputs": [
        {
          "internalType": "string",
          "name": "",
          "type": "string"
        }
      ],
      "stateMutability": "view",
      "type": "function"
    },
    {
      "inputs": [
        {
          "internalType": "uint256",
          "name": "tokenId",
          "type": "uint256"
        }
      ],
      "name": "getApproved",
      "outputs": [
        {
          "internalType": "address",
          "name": "",
          "type": "address"
        }
      ],
      "stateMutability": "view",
      "type": "function"
    },
    {
      "inputs": [
        {
          "internalType": "address",
          "name": "owner",
          "type": "address"
        },
        {
          "internalType": "address",
          "name": "operator",
          "type": "address"
        }
      ],
      "name": "isApprovedForAll",
      "outputs": [
        {
          "internalType": "bool",
          "name": "",
          "type": "bool"
        }
      ],
      "stateMutability": "view",
      "type": "function"
    },
    {
      "inputs": [],
      "name": "name",
      "outputs": [
        {
          "internalType": "string",
          "name": "",
          "type": "string"
        }
      ],
      "stateMutability": "view",
      "type": "function"
    },
    {
      "inputs": [],
      "name": "owner",
      "outputs": [
        {
          "internalType": "address",
          "name": "",
          "type": "address"
        }
      ],
      "stateMutability": "view",
      "type": "function"
    },
    {
      "inputs": [
        {
          "internalType": "uint256",
          "name": "tokenId",
          "type": "uint256"
        }
      ],
      "name": "ownerOf",
      "outputs": [
        {
          "internalType": "address",
          "name": "",
          "type": "address"
        }
      ],
      "stateMutability": "view",
      "type": "function"
    },
    {
      "inputs": [],
      "name": "renounceOwnership",
      "outputs": [],
      "stateMutability": "nonpayable",
      "type": "function"
    },
    {
      "inputs": [
        {
          "internalType": "address",
          "name": "from",
          "type": "address"
        },
        {
          "internalType": "address",
          "name": "to",
          "type": "address"
        },
        {
          "internalType": "uint256",
          "name": "tokenId",
          "type": "uint256"
        }
      ],
      "name": "safeTransferFrom",
      "outputs": [],
      "stateMutability": "nonpayable",
      "type": "function"
    },
    {
      "inputs": [
        {
          "internalType": "address",
          "name": "from",
          "type": "address"
        },
        {
          "internalType": "address",
          "name": "to",
          "type": "address"
        },
        {
          "internalType": "uint256",
          "name": "tokenId",
          "type": "uint256"
        },
        {
          "internalType": "bytes",
          "name": "_data",
          "type": "bytes"
        }
      ],
      "name": "safeTransferFrom",
      "outputs": [],
      "stateMutability": "nonpayable",
      "type": "function"
    },
    {
      "inputs": [
        {
          "internalType": "address",
          "name": "operator",
          "type": "address"
        },
        {
          "internalType": "bool",
          "name": "approved",
          "type": "bool"
        }
      ],
      "name": "setApprovalForAll",
      "outputs": [],
      "stateMutability": "nonpayable",
      "type": "function"
    },
    {
      "inputs": [
        {
          "internalType": "bytes4",
          "name": "interfaceId",
          "type": "bytes4"
        }
      ],
      "name": "supportsInterface",
      "outputs": [
        {
          "internalType": "bool",
          "name": "",
          "type": "bool"
        }
      ],
      "stateMutability": "view",
      "type": "function"
    },
    {
      "inputs": [],
      "name": "symbol",
      "outputs": [
        {
          "internalType": "string",
          "name": "",
          "type": "string"
        }
      ],
      "stateMutability": "view",
      "type": "function"
    },
    {
      "inputs": [
        {
          "internalType": "uint256",
          "name": "index",
          "type": "uint256"
        }
      ],
      "name": "tokenByIndex",
      "outputs": [
        {
          "internalType": "uint256",
          "name": "",
          "type": "uint256"
        }
      ],
      "stateMutability": "view",
      "type": "function"
    },
    {
      "inputs": [
        {
          "internalType": "address",
          "name": "owner",
          "type": "address"
        },
        {
          "internalType": "uint256",
          "name": "index",
          "type": "uint256"
        }
      ],
      "name": "tokenOfOwnerByIndex",
      "outputs": [
        {
          "internalType": "uint256",
          "name": "",
          "type": "uint256"
        }
      ],
      "stateMutability": "view",
      "type": "function"
    },
    {
      "inputs": [
        {
          "internalType": "uint256",
          "name": "tokenId",
          "type": "uint256"
        }
      ],
      "name": "tokenURI",
      "outputs": [
        {
          "internalType": "string",
          "name": "",
          "type": "string"
        }
      ],
      "stateMutability": "view",
      "type": "function"
    },
    {
      "inputs": [],
      "name": "totalSupply",
      "outputs": [
        {
          "internalType": "uint256",
          "name": "",
          "type": "uint256"
        }
      ],
      "stateMutability": "view",
      "type": "function"
    },
    {
      "inputs": [
        {
          "internalType": "address",
          "name": "from",
          "type": "address"
        },
        {
          "internalType": "address",
          "name": "to",
          "type": "address"
        },
        {
          "internalType": "uint256",
          "name": "tokenId",
          "type": "uint256"
        }
      ],
      "name": "transferFrom",
      "outputs": [],
      "stateMutability": "nonpayable",
      "type": "function"
    },
    {
      "inputs": [
        {
          "internalType": "address",
          "name": "newOwner",
          "type": "address"
        }
      ],
      "name": "transferOwnership",
      "outputs": [],
      "stateMutability": "nonpayable",
      "type": "function"
    },
    {
      "inputs": [
        {
          "internalType": "address",
          "name": "addressProductor",
          "type": "address"
        },
        {
          "internalType": "uint256",
          "name": "tokenId",
          "type": "uint256"
        },
        {
          "internalType": "string",
          "name": "tipoContenido",
          "type": "string"
        },
        {
          "internalType": "uint256",
          "name": "fecha",
          "type": "uint256"
        }
      ],
      "name": "crearCajon",
      "outputs": [],
      "stateMutability": "nonpayable",
      "type": "function"
    },
    {
      "inputs": [
        {
          "internalType": "uint256",
          "name": "tokenId",
          "type": "uint256"
        }
      ],
      "name": "obtenerCajon",
      "outputs": [
        {
          "internalType": "uint256",
          "name": "",
          "type": "uint256"
        },
        {
          "internalType": "string",
          "name": "",
          "type": "string"
        },
        {
          "internalType": "address[]",
          "name": "",
          "type": "address[]"
        },
        {
          "internalType": "uint256[]",
          "name": "",
          "type": "uint256[]"
        },
        {
          "internalType": "string[]",
          "name": "",
          "type": "string[]"
        }
      ],
      "stateMutability": "view",
      "type": "function"
    },
    {
      "inputs": [
        {
          "internalType": "uint256",
          "name": "tokenId",
          "type": "uint256"
        }
      ],
      "name": "destruirCajon",
      "outputs": [],
      "stateMutability": "nonpayable",
      "type": "function"
    },
    {
      "inputs": [
        {
          "internalType": "uint256",
          "name": "tokenId",
          "type": "uint256"
        },
        {
          "internalType": "address",
          "name": "addressLector",
          "type": "address"
        },
        {
          "internalType": "string",
          "name": "nombreComercial",
          "type": "string"
        },
        {
          "internalType": "uint256",
          "name": "fecha",
          "type": "uint256"
        }
      ],
      "name": "agregarPuntoCadena",
      "outputs": [],
      "stateMutability": "nonpayable",
      "type": "function"
    },
    {
      "inputs": [
        {
          "internalType": "address",
          "name": "account",
          "type": "address"
        },
        {
          "internalType": "string",
          "name": "nombreComercial",
          "type": "string"
        }
      ],
      "name": "addToWhitelistProductores",
      "outputs": [],
      "stateMutability": "nonpayable",
      "type": "function"
    },
    {
      "inputs": [
        {
          "internalType": "address",
          "name": "account",
          "type": "address"
        }
      ],
      "name": "addToWhitelistPuntosVenta",
      "outputs": [],
      "stateMutability": "nonpayable",
      "type": "function"
    },
    {
      "inputs": [
        {
          "internalType": "address",
          "name": "account",
          "type": "address"
        }
      ],
      "name": "addToWhitelistDistribuidores",
      "outputs": [],
      "stateMutability": "nonpayable",
      "type": "function"
    },
    {
      "inputs": [
        {
          "internalType": "address",
          "name": "account",
          "type": "address"
        }
      ],
      "name": "removeFromWhitelistProductores",
      "outputs": [],
      "stateMutability": "nonpayable",
      "type": "function"
    },
    {
      "inputs": [
        {
          "internalType": "address",
          "name": "account",
          "type": "address"
        }
      ],
      "name": "removeFromWhitelistPuntosVenta",
      "outputs": [],
      "stateMutability": "nonpayable",
      "type": "function"
    },
    {
      "inputs": [
        {
          "internalType": "address",
          "name": "account",
          "type": "address"
        }
      ],
      "name": "removeFromWhitelistDistribuidores",
      "outputs": [],
      "stateMutability": "nonpayable",
      "type": "function"
    }
  ],
  "bytecode": "0x608060405273f2d516456cf57796029ca68310e075d0c3b5277c600b60006101000a81548173ffffffffffffffffffffffffffffffffffffffff021916908373ffffffffffffffffffffffffffffffffffffffff1602179055503480156200006657600080fd5b506040518060400160405280600f81526020017f4d792045524337323120546f6b656e00000000000000000000000000000000008152506040518060400160405280600481526020017f4d45543100000000000000000000000000000000000000000000000000000000815250620000eb6301ffc9a760e01b6200021e60201b60201c565b816006908051906020019062000103929190620002fe565b5080600790805190602001906200011c929190620002fe565b50620001356380ac58cd60e01b6200021e60201b60201c565b6200014d635b5e139f60e01b6200021e60201b60201c565b6200016563780e9d6360e01b6200021e60201b60201c565b5050600062000179620002f660201b60201c565b905080600a60006101000a81548173ffffffffffffffffffffffffffffffffffffffff021916908373ffffffffffffffffffffffffffffffffffffffff1602179055508073ffffffffffffffffffffffffffffffffffffffff16600073ffffffffffffffffffffffffffffffffffffffff167f8be0079c531659141344cd1fd0a4f28419497f9722a3daafe3b4186f6b6457e060405160405180910390a35062000419565b63ffffffff60e01b817bffffffffffffffffffffffffffffffffffffffffffffffffffffffff191614156200028a576040517f08c379a00000000000000000000000000000000000000000000000000000000081526004016200028190620003e6565b60405180910390fd5b6001600080837bffffffffffffffffffffffffffffffffffffffffffffffffffffffff19167bffffffffffffffffffffffffffffffffffffffffffffffffffffffff1916815260200190815260200160002060006101000a81548160ff02191690831515021790555050565b600033905090565b828054600181600116156101000203166002900490600052602060002090601f016020900481019282601f106200034157805160ff191683800117855562000372565b8280016001018555821562000372579182015b828111156200037157825182559160200191906001019062000354565b5b50905062000381919062000385565b5090565b5b80821115620003a057600081600090555060010162000386565b5090565b6000620003b3601c8362000408565b91507f4552433136353a20696e76616c696420696e74657266616365206964000000006000830152602082019050919050565b600060208201905081810360008301526200040181620003a4565b9050919050565b600082825260208201905092915050565b614e9680620004296000396000f3fe608060405234801561001057600080fd5b50600436106101da5760003560e01c8063715018a611610104578063a22cb465116100a2578063e985e9c511610071578063e985e9c514610553578063f2fde38b14610583578063f7375df91461059f578063fd7f0349146105bb576101da565b8063a22cb465146104cf578063b88d4fde146104eb578063c87b56dd14610507578063cbfbbef714610537576101da565b80638da5cb5b116100de5780638da5cb5b1461045b57806395d89b411461047957806396cb8c74146104975780639d1e2c2d146104b3576101da565b8063715018a61461040157806373841b351461040b5780637ac0df5914610427576101da565b80632f745c591161017c5780634f6ccce71161014b5780634f6ccce7146103535780636352211e146103835780636c0360eb146103b357806370a08231146103d1576101da565b80632f745c59146102cf5780633798baff146102ff57806342842e0e1461031b578063473ade3f14610337576101da565b8063095ea7b3116101b8578063095ea7b31461025d57806318160ddd1461027957806322cac6a81461029757806323b872dd146102b3576101da565b806301ffc9a7146101df57806306fdde031461020f578063081812fc1461022d575b600080fd5b6101f960048036038101906101f49190613997565b6105d7565b6040516102069190614765565b60405180910390f35b61021761063e565b6040516102249190614780565b60405180910390f35b610247600480360381019061024291906139e9565b6106e0565b60405161025491906146fe565b60405180910390f35b610277600480360381019061027291906138e0565b610765565b005b61028161087d565b60405161028e9190614aa2565b60405180910390f35b6102b160048036038101906102ac919061388c565b61088e565b005b6102cd60048036038101906102c89190613786565b610976565b005b6102e960048036038101906102e491906138e0565b6109d6565b6040516102f69190614aa2565b60405180910390f35b61031960048036038101906103149190613721565b610a31565b005b61033560048036038101906103309190613786565b610b27565b005b610351600480360381019061034c9190613721565b610b47565b005b61036d600480360381019061036891906139e9565b610c32565b60405161037a9190614aa2565b60405180910390f35b61039d600480360381019061039891906139e9565b610c55565b6040516103aa91906146fe565b60405180910390f35b6103bb610c8c565b6040516103c89190614780565b60405180910390f35b6103eb60048036038101906103e69190613721565b610d2e565b6040516103f89190614aa2565b60405180910390f35b610409610ded565b005b61042560048036038101906104209190613721565b610f45565b005b610441600480360381019061043c91906139e9565b611030565b604051610452959493929190614abd565b60405180910390f35b610463611450565b60405161047091906146fe565b60405180910390f35b61048161147a565b60405161048e9190614780565b60405180910390f35b6104b160048036038101906104ac91906139e9565b61151c565b005b6104cd60048036038101906104c8919061391c565b6116d8565b005b6104e960048036038101906104e49190613850565b611911565b005b610505600480360381019061050091906137d5565b611a92565b005b610521600480360381019061051c91906139e9565b611af4565b60405161052e9190614780565b60405180910390f35b610551600480360381019061054c9190613721565b611c7f565b005b61056d6004803603810190610568919061374a565b611d6a565b60405161057a9190614765565b60405180910390f35b61059d60048036038101906105989190613721565b611dfe565b005b6105b960048036038101906105b49190613a12565b611fc5565b005b6105d560048036038101906105d09190613721565b612238565b005b6000806000837bffffffffffffffffffffffffffffffffffffffffffffffffffffffff19167bffffffffffffffffffffffffffffffffffffffffffffffffffffffff1916815260200190815260200160002060009054906101000a900460ff169050919050565b606060068054600181600116156101000203166002900480601f0160208091040260200160405190810160405280929190818152602001828054600181600116156101000203166002900480156106d65780601f106106ab576101008083540402835291602001916106d6565b820191906000526020600020905b8154815290600101906020018083116106b957829003601f168201915b5050505050905090565b60006106eb82612323565b61072a576040517f08c379a000000000000000000000000000000000000000000000000000000000815260040161072190614962565b60405180910390fd5b6004600083815260200190815260200160002060009054906101000a900473ffffffffffffffffffffffffffffffffffffffff169050919050565b600061077082610c55565b90508073ffffffffffffffffffffffffffffffffffffffff168373ffffffffffffffffffffffffffffffffffffffff1614156107e1576040517f08c379a00000000000000000000000000000000000000000000000000000000081526004016107d890614a02565b60405180910390fd5b8073ffffffffffffffffffffffffffffffffffffffff16610800612340565b73ffffffffffffffffffffffffffffffffffffffff16148061082f575061082e81610829612340565b611d6a565b5b61086e576040517f08c379a0000000000000000000000000000000000000000000000000000000008152600401610865906148c2565b60405180910390fd5b6108788383612348565b505050565b60006108896002612401565b905090565b600b60009054906101000a900473ffffffffffffffffffffffffffffffffffffffff1673ffffffffffffffffffffffffffffffffffffffff163373ffffffffffffffffffffffffffffffffffffffff161461091e576040517f08c379a0000000000000000000000000000000000000000000000000000000008152600401610915906147c2565b60405180910390fd5b80600c60008473ffffffffffffffffffffffffffffffffffffffff1673ffffffffffffffffffffffffffffffffffffffff168152602001908152602001600020908051906020019061097192919061347a565b505050565b610987610981612340565b82612416565b6109c6576040517f08c379a00000000000000000000000000000000000000000000000000000000081526004016109bd90614a22565b60405180910390fd5b6109d18383836124f4565b505050565b6000610a2982600160008673ffffffffffffffffffffffffffffffffffffffff1673ffffffffffffffffffffffffffffffffffffffff16815260200190815260200160002061270b90919063ffffffff16565b905092915050565b600b60009054906101000a900473ffffffffffffffffffffffffffffffffffffffff1673ffffffffffffffffffffffffffffffffffffffff163373ffffffffffffffffffffffffffffffffffffffff1614610ac1576040517f08c379a0000000000000000000000000000000000000000000000000000000008152600401610ab8906147c2565b60405180910390fd5b60405180602001604052806000815250600c60008373ffffffffffffffffffffffffffffffffffffffff1673ffffffffffffffffffffffffffffffffffffffff1681526020019081526020016000209080519060200190610b2392919061347a565b5050565b610b4283838360405180602001604052806000815250611a92565b505050565b600b60009054906101000a900473ffffffffffffffffffffffffffffffffffffffff1673ffffffffffffffffffffffffffffffffffffffff163373ffffffffffffffffffffffffffffffffffffffff1614610bd7576040517f08c379a0000000000000000000000000000000000000000000000000000000008152600401610bce906147c2565b60405180910390fd5b6001600e60008373ffffffffffffffffffffffffffffffffffffffff1673ffffffffffffffffffffffffffffffffffffffff16815260200190815260200160002060006101000a81548160ff02191690831515021790555050565b600080610c4983600261272590919063ffffffff16565b50905080915050919050565b6000610c8582604051806060016040528060298152602001614e386029913960026127519092919063ffffffff16565b9050919050565b606060098054600181600116156101000203166002900480601f016020809104026020016040519081016040528092919081815260200182805460018160011615610100020316600290048015610d245780601f10610cf957610100808354040283529160200191610d24565b820191906000526020600020905b815481529060010190602001808311610d0757829003601f168201915b5050505050905090565b60008073ffffffffffffffffffffffffffffffffffffffff168273ffffffffffffffffffffffffffffffffffffffff161415610d9f576040517f08c379a0000000000000000000000000000000000000000000000000000000008152600401610d96906148e2565b60405180910390fd5b610de6600160008473ffffffffffffffffffffffffffffffffffffffff1673ffffffffffffffffffffffffffffffffffffffff168152602001908152602001600020612770565b9050919050565b610df5612340565b73ffffffffffffffffffffffffffffffffffffffff16600a60009054906101000a900473ffffffffffffffffffffffffffffffffffffffff1673ffffffffffffffffffffffffffffffffffffffff1614610e84576040517f08c379a0000000000000000000000000000000000000000000000000000000008152600401610e7b90614982565b60405180910390fd5b600073ffffffffffffffffffffffffffffffffffffffff16600a60009054906101000a900473ffffffffffffffffffffffffffffffffffffffff1673ffffffffffffffffffffffffffffffffffffffff167f8be0079c531659141344cd1fd0a4f28419497f9722a3daafe3b4186f6b6457e060405160405180910390a36000600a60006101000a81548173ffffffffffffffffffffffffffffffffffffffff021916908373ffffffffffffffffffffffffffffffffffffffff160217905550565b600b60009054906101000a900473ffffffffffffffffffffffffffffffffffffffff1673ffffffffffffffffffffffffffffffffffffffff163373ffffffffffffffffffffffffffffffffffffffff1614610fd5576040517f08c379a0000000000000000000000000000000000000000000000000000000008152600401610fcc906147c2565b60405180910390fd5b6000600d60008373ffffffffffffffffffffffffffffffffffffffff1673ffffffffffffffffffffffffffffffffffffffff16815260200190815260200160002060006101000a81548160ff02191690831515021790555050565b6000606080606080600f600087815260200190815260200160002060020160009054906101000a900460ff1661109b576040517f08c379a0000000000000000000000000000000000000000000000000000000008152600401611092906149e2565b60405180910390fd5b6060600f60008881526020019081526020016000206003018054905067ffffffffffffffff811180156110cd57600080fd5b506040519080825280602002602001820160405280156110fc5781602001602082028036833780820191505090505b5090506060600f60008981526020019081526020016000206003018054905067ffffffffffffffff8111801561113157600080fd5b506040519080825280602002602001820160405280156111605781602001602082028036833780820191505090505b5090506060600f60008a81526020019081526020016000206003018054905067ffffffffffffffff8111801561119557600080fd5b506040519080825280602002602001820160405280156111c957816020015b60608152602001906001900390816111b45790505b50905060005b600f60008b81526020019081526020016000206003018054905081101561136d576000600f60008c8152602001908152602001600020600301828154811061121357fe5b906000526020600020906003020190508060000160009054906101000a900473ffffffffffffffffffffffffffffffffffffffff1685838151811061125457fe5b602002602001019073ffffffffffffffffffffffffffffffffffffffff16908173ffffffffffffffffffffffffffffffffffffffff1681525050806001015484838151811061129f57fe5b602002602001018181525050806002018054600181600116156101000203166002900480601f0160208091040260200160405190810160405280929190818152602001828054600181600116156101000203166002900480156113435780601f1061131857610100808354040283529160200191611343565b820191906000526020600020905b81548152906001019060200180831161132657829003601f168201915b505050505083838151811061135457fe5b60200260200101819052505080806001019150506111cf565b50600f60008a815260200190815260200160002060000154600f60008b8152602001908152602001600020600101848484838054600181600116156101000203166002900480601f0160208091040260200160405190810160405280929190818152602001828054600181600116156101000203166002900480156114335780601f1061140857610100808354040283529160200191611433565b820191906000526020600020905b81548152906001019060200180831161141657829003601f168201915b505050505093509750975097509750975050505091939590929450565b6000600a60009054906101000a900473ffffffffffffffffffffffffffffffffffffffff16905090565b606060078054600181600116156101000203166002900480601f0160208091040260200160405190810160405280929190818152602001828054600181600116156101000203166002900480156115125780601f106114e757610100808354040283529160200191611512565b820191906000526020600020905b8154815290600101906020018083116114f557829003601f168201915b5050505050905090565b60011515600d60003373ffffffffffffffffffffffffffffffffffffffff1673ffffffffffffffffffffffffffffffffffffffff16815260200190815260200160002060009054906101000a900460ff161515146115af576040517f08c379a00000000000000000000000000000000000000000000000000000000081526004016115a690614882565b60405180910390fd5b3373ffffffffffffffffffffffffffffffffffffffff166115cf82610c55565b73ffffffffffffffffffffffffffffffffffffffff1614611625576040517f08c379a000000000000000000000000000000000000000000000000000000000815260040161161c90614a62565b60405180910390fd5b61162e81612785565b6000600f60008381526020019081526020016000206000018190555060405180602001604052806000815250600f6000838152602001908152602001600020600101908051906020019061168392919061347a565b50600f600082815260200190815260200160002060030160006116a691906134fa565b6000600f600083815260200190815260200160002060020160006101000a81548160ff02191690831515021790555050565b6040516020016116e7906146e9565b60405160208183030381529060405280519060200120600c60003373ffffffffffffffffffffffffffffffffffffffff1673ffffffffffffffffffffffffffffffffffffffff16815260200190815260200160002060405160200161174c91906146ae565b6040516020818303038152906040528051906020012014156117a3576040517f08c379a000000000000000000000000000000000000000000000000000000000815260040161179a90614902565b60405180910390fd5b6117ad84846128bf565b82600f60008581526020019081526020016000206000018190555081600f600085815260200190815260200160002060010190805190602001906117f292919061347a565b506001600f600085815260200190815260200160002060020160006101000a81548160ff0219169083151502179055506060600c60008673ffffffffffffffffffffffffffffffffffffffff1673ffffffffffffffffffffffffffffffffffffffff1681526020019081526020016000208054600181600116156101000203166002900480601f0160208091040260200160405190810160405280929190818152602001828054600181600116156101000203166002900480156118f75780601f106118cc576101008083540402835291602001916118f7565b820191906000526020600020905b8154815290600101906020018083116118da57829003601f168201915b5050505050905061190a84868385611fc5565b5050505050565b611919612340565b73ffffffffffffffffffffffffffffffffffffffff168273ffffffffffffffffffffffffffffffffffffffff161415611987576040517f08c379a000000000000000000000000000000000000000000000000000000000815260040161197e90614862565b60405180910390fd5b8060056000611994612340565b73ffffffffffffffffffffffffffffffffffffffff1673ffffffffffffffffffffffffffffffffffffffff16815260200190815260200160002060008473ffffffffffffffffffffffffffffffffffffffff1673ffffffffffffffffffffffffffffffffffffffff16815260200190815260200160002060006101000a81548160ff0219169083151502179055508173ffffffffffffffffffffffffffffffffffffffff16611a41612340565b73ffffffffffffffffffffffffffffffffffffffff167f17307eab39ab6107e8899845ad3d59bd9653f200f220920489ca2b5937696c3183604051611a869190614765565b60405180910390a35050565b611aa3611a9d612340565b83612416565b611ae2576040517f08c379a0000000000000000000000000000000000000000000000000000000008152600401611ad990614a22565b60405180910390fd5b611aee84848484612a4d565b50505050565b6060611aff82612323565b611b3e576040517f08c379a0000000000000000000000000000000000000000000000000000000008152600401611b35906149c2565b60405180910390fd5b6060600860008481526020019081526020016000208054600181600116156101000203166002900480601f016020809104026020016040519081016040528092919081815260200182805460018160011615610100020316600290048015611be75780601f10611bbc57610100808354040283529160200191611be7565b820191906000526020600020905b815481529060010190602001808311611bca57829003601f168201915b50505050509050600060098054600181600116156101000203166002900490501415611c165780915050611c7a565b600081511115611c4b57600981604051602001611c349291906146c5565b604051602081830303815290604052915050611c7a565b6009611c5684612aa9565b604051602001611c679291906146c5565b6040516020818303038152906040529150505b919050565b600b60009054906101000a900473ffffffffffffffffffffffffffffffffffffffff1673ffffffffffffffffffffffffffffffffffffffff163373ffffffffffffffffffffffffffffffffffffffff1614611d0f576040517f08c379a0000000000000000000000000000000000000000000000000000000008152600401611d06906147c2565b60405180910390fd5b6000600e60008373ffffffffffffffffffffffffffffffffffffffff1673ffffffffffffffffffffffffffffffffffffffff16815260200190815260200160002060006101000a81548160ff02191690831515021790555050565b6000600560008473ffffffffffffffffffffffffffffffffffffffff1673ffffffffffffffffffffffffffffffffffffffff16815260200190815260200160002060008373ffffffffffffffffffffffffffffffffffffffff1673ffffffffffffffffffffffffffffffffffffffff16815260200190815260200160002060009054906101000a900460ff16905092915050565b611e06612340565b73ffffffffffffffffffffffffffffffffffffffff16600a60009054906101000a900473ffffffffffffffffffffffffffffffffffffffff1673ffffffffffffffffffffffffffffffffffffffff1614611e95576040517f08c379a0000000000000000000000000000000000000000000000000000000008152600401611e8c90614982565b60405180910390fd5b600073ffffffffffffffffffffffffffffffffffffffff168173ffffffffffffffffffffffffffffffffffffffff161415611f05576040517f08c379a0000000000000000000000000000000000000000000000000000000008152600401611efc90614802565b60405180910390fd5b8073ffffffffffffffffffffffffffffffffffffffff16600a60009054906101000a900473ffffffffffffffffffffffffffffffffffffffff1673ffffffffffffffffffffffffffffffffffffffff167f8be0079c531659141344cd1fd0a4f28419497f9722a3daafe3b4186f6b6457e060405160405180910390a380600a60006101000a81548173ffffffffffffffffffffffffffffffffffffffff021916908373ffffffffffffffffffffffffffffffffffffffff16021790555050565b60011515600e60003373ffffffffffffffffffffffffffffffffffffffff1673ffffffffffffffffffffffffffffffffffffffff16815260200190815260200160002060009054906101000a900460ff1615151480612074575060011515600d60003373ffffffffffffffffffffffffffffffffffffffff1673ffffffffffffffffffffffffffffffffffffffff16815260200190815260200160002060009054906101000a900460ff161515145b806121075750604051602001612089906146e9565b60405160208183030381529060405280519060200120600c60003373ffffffffffffffffffffffffffffffffffffffff1673ffffffffffffffffffffffffffffffffffffffff1681526020019081526020016000206040516020016120ee91906146ae565b6040516020818303038152906040528051906020012014155b612146576040517f08c379a000000000000000000000000000000000000000000000000000000000815260040161213d90614a82565b60405180910390fd5b61214e61351e565b60405180606001604052808573ffffffffffffffffffffffffffffffffffffffff168152602001838152602001848152509050600f600086815260200190815260200160002060030181908060018154018082558091505060019003906000526020600020906003020160009091909190915060008201518160000160006101000a81548173ffffffffffffffffffffffffffffffffffffffff021916908373ffffffffffffffffffffffffffffffffffffffff16021790555060208201518160010155604082015181600201908051906020019061222e92919061347a565b5050505050505050565b600b60009054906101000a900473ffffffffffffffffffffffffffffffffffffffff1673ffffffffffffffffffffffffffffffffffffffff163373ffffffffffffffffffffffffffffffffffffffff16146122c8576040517f08c379a00000000000000000000000000000000000000000000000000000000081526004016122bf906147c2565b60405180910390fd5b6001600d60008373ffffffffffffffffffffffffffffffffffffffff1673ffffffffffffffffffffffffffffffffffffffff16815260200190815260200160002060006101000a81548160ff02191690831515021790555050565b6000612339826002612bf090919063ffffffff16565b9050919050565b600033905090565b816004600083815260200190815260200160002060006101000a81548173ffffffffffffffffffffffffffffffffffffffff021916908373ffffffffffffffffffffffffffffffffffffffff160217905550808273ffffffffffffffffffffffffffffffffffffffff166123bb83610c55565b73ffffffffffffffffffffffffffffffffffffffff167f8c5be1e5ebec7d5bd14f71427d1e84f3dd0314c0f7b2291e5b200ac8c7c3b92560405160405180910390a45050565b600061240f82600001612c0a565b9050919050565b600061242182612323565b612460576040517f08c379a0000000000000000000000000000000000000000000000000000000008152600401612457906148a2565b60405180910390fd5b600061246b83610c55565b90508073ffffffffffffffffffffffffffffffffffffffff168473ffffffffffffffffffffffffffffffffffffffff1614806124da57508373ffffffffffffffffffffffffffffffffffffffff166124c2846106e0565b73ffffffffffffffffffffffffffffffffffffffff16145b806124eb57506124ea8185611d6a565b5b91505092915050565b8273ffffffffffffffffffffffffffffffffffffffff1661251482610c55565b73ffffffffffffffffffffffffffffffffffffffff161461256a576040517f08c379a0000000000000000000000000000000000000000000000000000000008152600401612561906149a2565b60405180910390fd5b600073ffffffffffffffffffffffffffffffffffffffff168273ffffffffffffffffffffffffffffffffffffffff1614156125da576040517f08c379a00000000000000000000000000000000000000000000000000000000081526004016125d190614842565b60405180910390fd5b6125e5838383612c1b565b6125f0600082612348565b61264181600160008673ffffffffffffffffffffffffffffffffffffffff1673ffffffffffffffffffffffffffffffffffffffff168152602001908152602001600020612c2090919063ffffffff16565b5061269381600160008573ffffffffffffffffffffffffffffffffffffffff1673ffffffffffffffffffffffffffffffffffffffff168152602001908152602001600020612c3a90919063ffffffff16565b506126aa81836002612c549092919063ffffffff16565b50808273ffffffffffffffffffffffffffffffffffffffff168473ffffffffffffffffffffffffffffffffffffffff167fddf252ad1be2c89b69c2b068fc378daa952ba7f163c4a11628f55a4df523b3ef60405160405180910390a4505050565b600061271a8360000183612c89565b60001c905092915050565b6000806000806127388660000186612cf6565b915091508160001c8160001c9350935050509250929050565b6000612764846000018460001b84612d79565b60001c90509392505050565b600061277e82600001612e0a565b9050919050565b600061279082610c55565b905061279e81600084612c1b565b6127a9600083612348565b600060086000848152602001908152602001600020805460018160011615610100020316600290049050146127f8576008600083815260200190815260200160002060006127f79190613555565b5b61284982600160008473ffffffffffffffffffffffffffffffffffffffff1673ffffffffffffffffffffffffffffffffffffffff168152602001908152602001600020612c2090919063ffffffff16565b5061285e826002612e1b90919063ffffffff16565b5081600073ffffffffffffffffffffffffffffffffffffffff168273ffffffffffffffffffffffffffffffffffffffff167fddf252ad1be2c89b69c2b068fc378daa952ba7f163c4a11628f55a4df523b3ef60405160405180910390a45050565b600073ffffffffffffffffffffffffffffffffffffffff168273ffffffffffffffffffffffffffffffffffffffff16141561292f576040517f08c379a000000000000000000000000000000000000000000000000000000000815260040161292690614942565b60405180910390fd5b61293881612323565b15612978576040517f08c379a000000000000000000000000000000000000000000000000000000000815260040161296f90614822565b60405180910390fd5b61298460008383612c1b565b6129d581600160008573ffffffffffffffffffffffffffffffffffffffff1673ffffffffffffffffffffffffffffffffffffffff168152602001908152602001600020612c3a90919063ffffffff16565b506129ec81836002612c549092919063ffffffff16565b50808273ffffffffffffffffffffffffffffffffffffffff16600073ffffffffffffffffffffffffffffffffffffffff167fddf252ad1be2c89b69c2b068fc378daa952ba7f163c4a11628f55a4df523b3ef60405160405180910390a45050565b612a588484846124f4565b612a6484848484612e35565b612aa3576040517f08c379a0000000000000000000000000000000000000000000000000000000008152600401612a9a906147e2565b60405180910390fd5b50505050565b60606000821415612af1576040518060400160405280600181526020017f30000000000000000000000000000000000000000000000000000000000000008152509050612beb565b600082905060005b60008214612b1b578080600101915050600a8281612b1357fe5b049150612af9565b60608167ffffffffffffffff81118015612b3457600080fd5b506040519080825280601f01601f191660200182016040528015612b675781602001600182028036833780820191505090505b50905060006001830390508593505b60008414612be357600a8481612b8857fe5b0660300160f81b82828060019003935081518110612ba257fe5b60200101907effffffffffffffffffffffffffffffffffffffffffffffffffffffffffffff1916908160001a905350600a8481612bdb57fe5b049350612b76565b819450505050505b919050565b6000612c02836000018360001b612f99565b905092915050565b600081600001805490509050919050565b505050565b6000612c32836000018360001b612fbc565b905092915050565b6000612c4c836000018360001b6130a4565b905092915050565b6000612c80846000018460001b8473ffffffffffffffffffffffffffffffffffffffff1660001b613114565b90509392505050565b600081836000018054905011612cd4576040517f08c379a0000000000000000000000000000000000000000000000000000000008152600401612ccb906147a2565b60405180910390fd5b826000018281548110612ce357fe5b9060005260206000200154905092915050565b60008082846000018054905011612d42576040517f08c379a0000000000000000000000000000000000000000000000000000000008152600401612d3990614922565b60405180910390fd5b6000846000018481548110612d5357fe5b906000526020600020906002020190508060000154816001015492509250509250929050565b60008084600101600085815260200190815260200160002054905060008114158390612ddb576040517f08c379a0000000000000000000000000000000000000000000000000000000008152600401612dd29190614780565b60405180910390fd5b50846000016001820381548110612dee57fe5b9060005260206000209060020201600101549150509392505050565b600081600001805490509050919050565b6000612e2d836000018360001b6131f0565b905092915050565b6000612e568473ffffffffffffffffffffffffffffffffffffffff16613309565b612e635760019050612f91565b6060612f2a63150b7a0260e01b612e78612340565b888787604051602401612e8e9493929190614719565b604051602081830303815290604052907bffffffffffffffffffffffffffffffffffffffffffffffffffffffff19166020820180517bffffffffffffffffffffffffffffffffffffffffffffffffffffffff8381831617835250505050604051806060016040528060328152602001614e06603291398773ffffffffffffffffffffffffffffffffffffffff1661331c9092919063ffffffff16565b9050600081806020019051810190612f4291906139c0565b905063150b7a0260e01b7bffffffffffffffffffffffffffffffffffffffffffffffffffffffff1916817bffffffffffffffffffffffffffffffffffffffffffffffffffffffff191614925050505b949350505050565b600080836001016000848152602001908152602001600020541415905092915050565b60008083600101600084815260200190815260200160002054905060008114613098576000600182039050600060018660000180549050039050600086600001828154811061300757fe5b906000526020600020015490508087600001848154811061302457fe5b906000526020600020018190555060018301876001016000838152602001908152602001600020819055508660000180548061305c57fe5b6001900381819060005260206000200160009055905586600101600087815260200190815260200160002060009055600194505050505061309e565b60009150505b92915050565b60006130b08383613334565b61310957826000018290806001815401808255809150506001900390600052602060002001600090919091909150558260000180549050836001016000848152602001908152602001600020819055506001905061310e565b600090505b92915050565b60008084600101600085815260200190815260200160002054905060008114156131bb578460000160405180604001604052808681526020018581525090806001815401808255809150506001900390600052602060002090600202016000909190919091506000820151816000015560208201518160010155505084600001805490508560010160008681526020019081526020016000208190555060019150506131e9565b828560000160018303815481106131ce57fe5b90600052602060002090600202016001018190555060009150505b9392505050565b600080836001016000848152602001908152602001600020549050600081146132fd576000600182039050600060018660000180549050039050600086600001828154811061323b57fe5b906000526020600020906002020190508087600001848154811061325b57fe5b90600052602060002090600202016000820154816000015560018201548160010155905050600183018760010160008360000154815260200190815260200160002081905550866000018054806132ae57fe5b6001900381819060005260206000209060020201600080820160009055600182016000905550509055866001016000878152602001908152602001600020600090556001945050505050613303565b60009150505b92915050565b600080823b905060008111915050919050565b606061332b8484600085613357565b90509392505050565b600080836001016000848152602001908152602001600020541415905092915050565b606061336285613309565b6133a1576040517f08c379a000000000000000000000000000000000000000000000000000000000815260040161339890614a42565b60405180910390fd5b600060608673ffffffffffffffffffffffffffffffffffffffff1685876040516133cb9190614697565b60006040518083038185875af1925050503d8060008114613408576040519150601f19603f3d011682016040523d82523d6000602084013e61340d565b606091505b50915091508115613422578092505050613472565b6000815111156134355780518082602001fd5b836040517f08c379a00000000000000000000000000000000000000000000000000000000081526004016134699190614780565b60405180910390fd5b949350505050565b828054600181600116156101000203166002900490600052602060002090601f016020900481019282601f106134bb57805160ff19168380011785556134e9565b828001600101855582156134e9579182015b828111156134e85782518255916020019190600101906134cd565b5b5090506134f6919061359d565b5090565b508054600082556003029060005260206000209081019061351b91906135ba565b50565b6040518060600160405280600073ffffffffffffffffffffffffffffffffffffffff16815260200160008152602001606081525090565b50805460018160011615610100020316600290046000825580601f1061357b575061359a565b601f016020900490600052602060002090810190613599919061359d565b5b50565b5b808211156135b657600081600090555060010161359e565b5090565b5b8082111561360c57600080820160006101000a81549073ffffffffffffffffffffffffffffffffffffffff021916905560018201600090556002820160006136039190613555565b506003016135bb565b5090565b60008135905061361f81614da9565b92915050565b60008135905061363481614dc0565b92915050565b60008135905061364981614dd7565b92915050565b60008151905061365e81614dd7565b92915050565b600082601f83011261367557600080fd5b813561368861368382614b59565b614b2c565b915080825260208301602083018583830111156136a457600080fd5b6136af838284614d56565b50505092915050565b600082601f8301126136c957600080fd5b81356136dc6136d782614b85565b614b2c565b915080825260208301602083018583830111156136f857600080fd5b613703838284614d56565b50505092915050565b60008135905061371b81614dee565b92915050565b60006020828403121561373357600080fd5b600061374184828501613610565b91505092915050565b6000806040838503121561375d57600080fd5b600061376b85828601613610565b925050602061377c85828601613610565b9150509250929050565b60008060006060848603121561379b57600080fd5b60006137a986828701613610565b93505060206137ba86828701613610565b92505060406137cb8682870161370c565b9150509250925092565b600080600080608085870312156137eb57600080fd5b60006137f987828801613610565b945050602061380a87828801613610565b935050604061381b8782880161370c565b925050606085013567ffffffffffffffff81111561383857600080fd5b61384487828801613664565b91505092959194509250565b6000806040838503121561386357600080fd5b600061387185828601613610565b925050602061388285828601613625565b9150509250929050565b6000806040838503121561389f57600080fd5b60006138ad85828601613610565b925050602083013567ffffffffffffffff8111156138ca57600080fd5b6138d6858286016136b8565b9150509250929050565b600080604083850312156138f357600080fd5b600061390185828601613610565b92505060206139128582860161370c565b9150509250929050565b6000806000806080858703121561393257600080fd5b600061394087828801613610565b94505060206139518782880161370c565b935050604085013567ffffffffffffffff81111561396e57600080fd5b61397a878288016136b8565b925050606061398b8782880161370c565b91505092959194509250565b6000602082840312156139a957600080fd5b60006139b78482850161363a565b91505092915050565b6000602082840312156139d257600080fd5b60006139e08482850161364f565b91505092915050565b6000602082840312156139fb57600080fd5b6000613a098482850161370c565b91505092915050565b60008060008060808587031215613a2857600080fd5b6000613a368782880161370c565b9450506020613a4787828801613610565b935050604085013567ffffffffffffffff811115613a6457600080fd5b613a70878288016136b8565b9250506060613a818782880161370c565b91505092959194509250565b6000613a998383613ae0565b60208301905092915050565b6000613ab18383613ca8565b905092915050565b6000613ac58383614679565b60208301905092915050565b613ada81614ce2565b82525050565b613ae981614cd0565b82525050565b613af881614cd0565b82525050565b6000613b0982614bf6565b613b138185614c54565b9350613b1e83614bb1565b8060005b83811015613b4f578151613b368882613a8d565b9750613b4183614c2d565b925050600181019050613b22565b5085935050505092915050565b6000613b6782614c01565b613b718185614c65565b935083602082028501613b8385614bc1565b8060005b85811015613bbf5784840389528151613ba08582613aa5565b9450613bab83614c3a565b925060208a01995050600181019050613b87565b50829750879550505050505092915050565b6000613bdc82614c0c565b613be68185614c76565b9350613bf183614bd1565b8060005b83811015613c22578151613c098882613ab9565b9750613c1483614c47565b925050600181019050613bf5565b5085935050505092915050565b613c3881614cf4565b82525050565b6000613c4982614c17565b613c538185614c87565b9350613c63818560208601614d65565b613c6c81614d98565b840191505092915050565b6000613c8282614c17565b613c8c8185614c98565b9350613c9c818560208601614d65565b80840191505092915050565b6000613cb382614c22565b613cbd8185614ca3565b9350613ccd818560208601614d65565b613cd681614d98565b840191505092915050565b6000613cec82614c22565b613cf68185614cb4565b9350613d06818560208601614d65565b613d0f81614d98565b840191505092915050565b6000613d2582614c22565b613d2f8185614cc5565b9350613d3f818560208601614d65565b80840191505092915050565b600081546001811660008114613d685760018114613d8d57613dd1565b607f6002830416613d798187614cc5565b955060ff1983168652808601935050613dd1565b60028204613d9b8187614cc5565b9550613da685614be1565b60005b82811015613dc857815481890152600182019150602081019050613da9565b82880195505050505b505092915050565b6000613de6602283614cb4565b91507f456e756d657261626c655365743a20696e646578206f7574206f6620626f756e60008301527f64730000000000000000000000000000000000000000000000000000000000006020830152604082019050919050565b6000613e4c602183614cb4565b91507f6f6e6c79206f776e65722063616e2063616c6c20746869732066756e6374696f60008301527f6e000000000000000000000000000000000000000000000000000000000000006020830152604082019050919050565b6000613eb2603283614cb4565b91507f4552433732313a207472616e7366657220746f206e6f6e20455243373231526560008301527f63656976657220696d706c656d656e74657200000000000000000000000000006020830152604082019050919050565b6000613f18602683614cb4565b91507f4f776e61626c653a206e6577206f776e657220697320746865207a65726f206160008301527f64647265737300000000000000000000000000000000000000000000000000006020830152604082019050919050565b6000613f7e601c83614cb4565b91507f4552433732313a20746f6b656e20616c7265616479206d696e746564000000006000830152602082019050919050565b6000613fbe602483614cb4565b91507f4552433732313a207472616e7366657220746f20746865207a65726f2061646460008301527f72657373000000000000000000000000000000000000000000000000000000006020830152604082019050919050565b6000614024601983614cb4565b91507f4552433732313a20617070726f766520746f2063616c6c6572000000000000006000830152602082019050919050565b6000614064602283614cb4565b91507f6973206e6f7420696e207468652077686974656c69737450756e746f7356656e60008301527f74610000000000000000000000000000000000000000000000000000000000006020830152604082019050919050565b60006140ca602c83614cb4565b91507f4552433732313a206f70657261746f7220717565727920666f72206e6f6e657860008301527f697374656e7420746f6b656e00000000000000000000000000000000000000006020830152604082019050919050565b6000614130603883614cb4565b91507f4552433732313a20617070726f76652063616c6c6572206973206e6f74206f7760008301527f6e6572206e6f7220617070726f76656420666f7220616c6c00000000000000006020830152604082019050919050565b6000614196602a83614cb4565b91507f4552433732313a2062616c616e636520717565727920666f7220746865207a6560008301527f726f2061646472657373000000000000000000000000000000000000000000006020830152604082019050919050565b60006141fc602283614cb4565b91507f6973206e6f7420696e207468652077686974656c69737450726f647563746f7260008301527f65730000000000000000000000000000000000000000000000000000000000006020830152604082019050919050565b6000614262602283614cb4565b91507f456e756d657261626c654d61703a20696e646578206f7574206f6620626f756e60008301527f64730000000000000000000000000000000000000000000000000000000000006020830152604082019050919050565b60006142c8602083614cb4565b91507f4552433732313a206d696e7420746f20746865207a65726f20616464726573736000830152602082019050919050565b6000614308602c83614cb4565b91507f4552433732313a20617070726f76656420717565727920666f72206e6f6e657860008301527f697374656e7420746f6b656e00000000000000000000000000000000000000006020830152604082019050919050565b600061436e602083614cb4565b91507f4f776e61626c653a2063616c6c6572206973206e6f7420746865206f776e65726000830152602082019050919050565b60006143ae602983614cb4565b91507f4552433732313a207472616e73666572206f6620746f6b656e2074686174206960008301527f73206e6f74206f776e00000000000000000000000000000000000000000000006020830152604082019050919050565b6000614414602f83614cb4565b91507f4552433732314d657461646174613a2055524920717565727920666f72206e6f60008301527f6e6578697374656e7420746f6b656e00000000000000000000000000000000006020830152604082019050919050565b600061447a601883614cb4565b91507f74686520746f6b656e20646f65736e27742065786973747300000000000000006000830152602082019050919050565b60006144ba602183614cb4565b91507f4552433732313a20617070726f76616c20746f2063757272656e74206f776e6560008301527f72000000000000000000000000000000000000000000000000000000000000006020830152604082019050919050565b6000614520600083614cc5565b9150600082019050919050565b600061453a603183614cb4565b91507f4552433732313a207472616e736665722063616c6c6572206973206e6f74206f60008301527f776e6572206e6f7220617070726f7665640000000000000000000000000000006020830152604082019050919050565b60006145a0601d83614cb4565b91507f416464726573733a2063616c6c20746f206e6f6e2d636f6e74726163740000006000830152602082019050919050565b60006145e0601083614cb4565b91507f6973206e6f7420746865206f776e6572000000000000000000000000000000006000830152602082019050919050565b6000614620602383614cb4565b91507f6973206e6f7420696e207468652057686974656c697374436f6d65726369616e60008301527f74657300000000000000000000000000000000000000000000000000000000006020830152604082019050919050565b61468281614d4c565b82525050565b61469181614d4c565b82525050565b60006146a38284613c77565b915081905092915050565b60006146ba8284613d4b565b915081905092915050565b60006146d18285613d4b565b91506146dd8284613d1a565b91508190509392505050565b60006146f482614513565b9150819050919050565b60006020820190506147136000830184613aef565b92915050565b600060808201905061472e6000830187613ad1565b61473b6020830186613aef565b6147486040830185614688565b818103606083015261475a8184613c3e565b905095945050505050565b600060208201905061477a6000830184613c2f565b92915050565b6000602082019050818103600083015261479a8184613ce1565b905092915050565b600060208201905081810360008301526147bb81613dd9565b9050919050565b600060208201905081810360008301526147db81613e3f565b9050919050565b600060208201905081810360008301526147fb81613ea5565b9050919050565b6000602082019050818103600083015261481b81613f0b565b9050919050565b6000602082019050818103600083015261483b81613f71565b9050919050565b6000602082019050818103600083015261485b81613fb1565b9050919050565b6000602082019050818103600083015261487b81614017565b9050919050565b6000602082019050818103600083015261489b81614057565b9050919050565b600060208201905081810360008301526148bb816140bd565b9050919050565b600060208201905081810360008301526148db81614123565b9050919050565b600060208201905081810360008301526148fb81614189565b9050919050565b6000602082019050818103600083015261491b816141ef565b9050919050565b6000602082019050818103600083015261493b81614255565b9050919050565b6000602082019050818103600083015261495b816142bb565b9050919050565b6000602082019050818103600083015261497b816142fb565b9050919050565b6000602082019050818103600083015261499b81614361565b9050919050565b600060208201905081810360008301526149bb816143a1565b9050919050565b600060208201905081810360008301526149db81614407565b9050919050565b600060208201905081810360008301526149fb8161446d565b9050919050565b60006020820190508181036000830152614a1b816144ad565b9050919050565b60006020820190508181036000830152614a3b8161452d565b9050919050565b60006020820190508181036000830152614a5b81614593565b9050919050565b60006020820190508181036000830152614a7b816145d3565b9050919050565b60006020820190508181036000830152614a9b81614613565b9050919050565b6000602082019050614ab76000830184614688565b92915050565b600060a082019050614ad26000830188614688565b8181036020830152614ae48187613ce1565b90508181036040830152614af88186613afe565b90508181036060830152614b0c8185613bd1565b90508181036080830152614b208184613b5c565b90509695505050505050565b6000604051905081810181811067ffffffffffffffff82111715614b4f57600080fd5b8060405250919050565b600067ffffffffffffffff821115614b7057600080fd5b601f19601f8301169050602081019050919050565b600067ffffffffffffffff821115614b9c57600080fd5b601f19601f8301169050602081019050919050565b6000819050602082019050919050565b6000819050602082019050919050565b6000819050602082019050919050565b60008190508160005260206000209050919050565b600081519050919050565b600081519050919050565b600081519050919050565b600081519050919050565b600081519050919050565b6000602082019050919050565b6000602082019050919050565b6000602082019050919050565b600082825260208201905092915050565b600082825260208201905092915050565b600082825260208201905092915050565b600082825260208201905092915050565b600081905092915050565b600082825260208201905092915050565b600082825260208201905092915050565b600081905092915050565b6000614cdb82614d2c565b9050919050565b6000614ced82614d2c565b9050919050565b60008115159050919050565b60007fffffffff0000000000000000000000000000000000000000000000000000000082169050919050565b600073ffffffffffffffffffffffffffffffffffffffff82169050919050565b6000819050919050565b82818337600083830152505050565b60005b83811015614d83578082015181840152602081019050614d68565b83811115614d92576000848401525b50505050565b6000601f19601f8301169050919050565b614db281614cd0565b8114614dbd57600080fd5b50565b614dc981614cf4565b8114614dd457600080fd5b50565b614de081614d00565b8114614deb57600080fd5b50565b614df781614d4c565b8114614e0257600080fd5b5056fe4552433732313a207472616e7366657220746f206e6f6e20455243373231526563656976657220696d706c656d656e7465724552433732313a206f776e657220717565727920666f72206e6f6e6578697374656e7420746f6b656ea26469706673582212207fc7ed904a443ac636c5591557571163272206fdcdd978fb17f86a770e1ee36a64736f6c634300060c0033",
  "immutableReferences": {},
  "source": "// SPDX-License-Identifier: MIT\r\npragma solidity >=0.4.25 <0.7.0;\r\npragma experimental ABIEncoderV2;\r\n\r\nimport \"@openzeppelin/contracts/token/ERC721/ERC721.sol\";\r\nimport \"@openzeppelin/contracts/access/Ownable.sol\";\r\nimport \"@openzeppelin/contracts/math/math.sol\";\r\n//import \"github.com/Arachnid/solidity-stringutils/strings.sol\";\r\n\r\ncontract Cajon is ERC721, Ownable {\r\n    address duenio = 0xf2d516456CF57796029cA68310E075d0c3b5277C; \r\n\r\n    struct UnidadCajon {\r\n        uint256 id;\r\n        string tipoContenido;\r\n        bool exists;\r\n        puntoCadena[] trayecto;\r\n    }\r\n\r\n    struct puntoCadena{\r\n        address addressLector;\r\n        uint256 fecha;\r\n        string nombreComercial;\r\n    }\r\n\r\n    mapping(address => string) whitelistProductores;\r\n    mapping(address => bool) whitelistPuntosVenta;\r\n    mapping(address => bool) whitelistDistribuidores;\r\n    mapping(uint256 => UnidadCajon) items;\r\n\r\n    constructor() ERC721(\"My ERC721 Token\", \"MET1\")  public {\r\n        \r\n    }\r\n\r\n    modifier soloDuenio(){\r\n        require(msg.sender == duenio,\"only owner can call this function\");\r\n        _;\r\n    }\r\n\r\n    modifier isInWhitelistProductores(){\r\n        require(keccak256(abi.encodePacked(whitelistProductores[msg.sender])) != keccak256(abi.encodePacked(\"\")), \"is not in the whitelistProductores\");\r\n        _;\r\n    }\r\n\r\n    modifier isInWhitelistComerciantes(){\r\n        require(whitelistDistribuidores[msg.sender]==true || whitelistPuntosVenta[msg.sender]==true || keccak256(abi.encodePacked(whitelistProductores[msg.sender])) != keccak256(abi.encodePacked(\"\")), \"is not in the WhitelistComerciantes\");\r\n        _;\r\n    }\r\n\r\n    modifier isInWhitelistPuntosVenta(){\r\n        require(whitelistPuntosVenta[msg.sender]==true, \"is not in the whitelistPuntosVenta\");\r\n        _;\r\n    }\r\n\r\n    modifier isInWhitelistDistribuidores(){\r\n        require(whitelistDistribuidores[msg.sender]==true, \"is not in the whitelistDistribuidores\");\r\n        _;\r\n    }\r\n\r\n    function crearCajon(address addressProductor, uint256 tokenId, string memory tipoContenido, uint256 fecha) isInWhitelistProductores public {\r\n        _mint(addressProductor, tokenId);\r\n        items[tokenId].id = tokenId;\r\n        items[tokenId].tipoContenido = tipoContenido;\r\n        items[tokenId].exists = true;\r\n        string memory nombreComercialProductor = whitelistProductores[addressProductor];\r\n        agregarPuntoCadena(tokenId, addressProductor, nombreComercialProductor, fecha);\r\n    }\r\n\r\n\r\n    function obtenerCajon(uint256 tokenId) public view returns(uint256, string memory, address[] memory,\r\n        uint256[] memory, string[] memory) {\r\n        require(items[tokenId].exists, \"the token doesn't exists\");\r\n\r\n        address[] memory addrs = new address[](items[tokenId].trayecto.length);\r\n        uint[] memory fechas = new uint[](items[tokenId].trayecto.length);\r\n        string[] memory nombres = new string[](items[tokenId].trayecto.length);\r\n\r\n        for(uint i=0; i<items[tokenId].trayecto.length; i++){\r\n            puntoCadena storage ptoCadena = items[tokenId].trayecto[i];\r\n            addrs[i] = ptoCadena.addressLector;\r\n            fechas[i] = ptoCadena.fecha;\r\n            nombres[i] = ptoCadena.nombreComercial;\r\n        }\r\n        return (items[tokenId].id, items[tokenId].tipoContenido, addrs, fechas, nombres);\r\n    }\r\n\r\n    function destruirCajon(uint256 tokenId) isInWhitelistPuntosVenta public {\r\n        require(ownerOf(tokenId) == msg.sender, \"is not the owner\");\r\n        _burn(tokenId);\r\n        items[tokenId].id = 0;\r\n        items[tokenId].tipoContenido = '';\r\n        delete items[tokenId].trayecto;\r\n        items[tokenId].exists = false;\r\n    }\r\n\r\n    function agregarPuntoCadena(uint256 tokenId, address addressLector, string memory nombreComercial, uint256 fecha) isInWhitelistComerciantes public {\r\n        puntoCadena memory nuevoPuntoCadena = puntoCadena({addressLector: addressLector, fecha: fecha, nombreComercial: nombreComercial});\r\n        items[tokenId].trayecto.push(nuevoPuntoCadena);\r\n    }\r\n\r\n    function addToWhitelistProductores(address account, string memory nombreComercial) soloDuenio public{\r\n        whitelistProductores[account] = nombreComercial;\r\n\r\n    }\r\n\r\n    function addToWhitelistPuntosVenta(address account) soloDuenio public{\r\n        whitelistPuntosVenta[account] = true;\r\n    }\r\n    \r\n    function addToWhitelistDistribuidores(address account) soloDuenio public{\r\n        whitelistDistribuidores[account] = true;\r\n    }\r\n\r\n     function removeFromWhitelistProductores(address account) soloDuenio public{\r\n        whitelistProductores[account] = \"\";\r\n    }\r\n\r\n    function removeFromWhitelistPuntosVenta(address account) soloDuenio public{\r\n        whitelistPuntosVenta[account] = false;\r\n    }\r\n\r\n    function removeFromWhitelistDistribuidores(address account) soloDuenio public{\r\n        whitelistDistribuidores[account] = false;\r\n    }\r\n    \r\n}\r\n",
  "sourcePath": "C:/Users/Lenovo/Documents/UM/Blockchain/blockchain_food_tracking/contracts/Cajon.sol",
  "compiler": {
    "name": "solc",
    "version": "0.6.12+commit.27d51765.Emscripten.clang"
  },
  "schemaVersion": "3.3.1",
  "updatedAt": "2020-11-20T13:36:11.532Z",
  "devdoc": {
    "kind": "dev",
    "methods": {
      "approve(address,uint256)": {
        "details": "See {IERC721-approve}."
      },
      "balanceOf(address)": {
        "details": "See {IERC721-balanceOf}."
      },
      "baseURI()": {
        "details": "Returns the base URI set via {_setBaseURI}. This will be automatically added as a prefix in {tokenURI} to each token's URI, or to the token ID if no specific URI is set for that token ID."
      },
      "getApproved(uint256)": {
        "details": "See {IERC721-getApproved}."
      },
      "isApprovedForAll(address,address)": {
        "details": "See {IERC721-isApprovedForAll}."
      },
      "name()": {
        "details": "See {IERC721Metadata-name}."
      },
      "owner()": {
        "details": "Returns the address of the current owner."
      },
      "ownerOf(uint256)": {
        "details": "See {IERC721-ownerOf}."
      },
      "renounceOwnership()": {
        "details": "Leaves the contract without owner. It will not be possible to call `onlyOwner` functions anymore. Can only be called by the current owner. NOTE: Renouncing ownership will leave the contract without an owner, thereby removing any functionality that is only available to the owner."
      },
      "safeTransferFrom(address,address,uint256)": {
        "details": "See {IERC721-safeTransferFrom}."
      },
      "safeTransferFrom(address,address,uint256,bytes)": {
        "details": "See {IERC721-safeTransferFrom}."
      },
      "setApprovalForAll(address,bool)": {
        "details": "See {IERC721-setApprovalForAll}."
      },
      "supportsInterface(bytes4)": {
        "details": "See {IERC165-supportsInterface}. Time complexity O(1), guaranteed to always use less than 30 000 gas."
      },
      "symbol()": {
        "details": "See {IERC721Metadata-symbol}."
      },
      "tokenByIndex(uint256)": {
        "details": "See {IERC721Enumerable-tokenByIndex}."
      },
      "tokenOfOwnerByIndex(address,uint256)": {
        "details": "See {IERC721Enumerable-tokenOfOwnerByIndex}."
      },
      "tokenURI(uint256)": {
        "details": "See {IERC721Metadata-tokenURI}."
      },
      "totalSupply()": {
        "details": "See {IERC721Enumerable-totalSupply}."
      },
      "transferFrom(address,address,uint256)": {
        "details": "See {IERC721-transferFrom}."
      },
      "transferOwnership(address)": {
        "details": "Transfers ownership of the contract to a new account (`newOwner`). Can only be called by the current owner."
      }
    },
    "version": 1
  },
  "userdoc": {
    "kind": "user",
    "methods": {},
    "version": 1
  }
}