{
  "contractName": "Cajon",
  "abi": [
    {
      "inputs": [],
      "stateMutability": "nonpayable",
      "type": "constructor"
    },
    {
      "anonymous": false,
      "inputs": [
        {
          "indexed": true,
          "internalType": "address",
          "name": "owner",
          "type": "address"
        },
        {
          "indexed": true,
          "internalType": "address",
          "name": "approved",
          "type": "address"
        },
        {
          "indexed": true,
          "internalType": "uint256",
          "name": "tokenId",
          "type": "uint256"
        }
      ],
      "name": "Approval",
      "type": "event"
    },
    {
      "anonymous": false,
      "inputs": [
        {
          "indexed": true,
          "internalType": "address",
          "name": "owner",
          "type": "address"
        },
        {
          "indexed": true,
          "internalType": "address",
          "name": "operator",
          "type": "address"
        },
        {
          "indexed": false,
          "internalType": "bool",
          "name": "approved",
          "type": "bool"
        }
      ],
      "name": "ApprovalForAll",
      "type": "event"
    },
    {
      "anonymous": false,
      "inputs": [
        {
          "indexed": true,
          "internalType": "address",
          "name": "previousOwner",
          "type": "address"
        },
        {
          "indexed": true,
          "internalType": "address",
          "name": "newOwner",
          "type": "address"
        }
      ],
      "name": "OwnershipTransferred",
      "type": "event"
    },
    {
      "anonymous": false,
      "inputs": [
        {
          "indexed": true,
          "internalType": "address",
          "name": "from",
          "type": "address"
        },
        {
          "indexed": true,
          "internalType": "address",
          "name": "to",
          "type": "address"
        },
        {
          "indexed": true,
          "internalType": "uint256",
          "name": "tokenId",
          "type": "uint256"
        }
      ],
      "name": "Transfer",
      "type": "event"
    },
    {
      "inputs": [
        {
          "internalType": "address",
          "name": "to",
          "type": "address"
        },
        {
          "internalType": "uint256",
          "name": "tokenId",
          "type": "uint256"
        }
      ],
      "name": "approve",
      "outputs": [],
      "stateMutability": "nonpayable",
      "type": "function"
    },
    {
      "inputs": [
        {
          "internalType": "address",
          "name": "owner",
          "type": "address"
        }
      ],
      "name": "balanceOf",
      "outputs": [
        {
          "internalType": "uint256",
          "name": "",
          "type": "uint256"
        }
      ],
      "stateMutability": "view",
      "type": "function",
      "constant": true
    },
    {
      "inputs": [],
      "name": "baseURI",
      "outputs": [
        {
          "internalType": "string",
          "name": "",
          "type": "string"
        }
      ],
      "stateMutability": "view",
      "type": "function",
      "constant": true
    },
    {
      "inputs": [
        {
          "internalType": "uint256",
          "name": "tokenId",
          "type": "uint256"
        }
      ],
      "name": "getApproved",
      "outputs": [
        {
          "internalType": "address",
          "name": "",
          "type": "address"
        }
      ],
      "stateMutability": "view",
      "type": "function",
      "constant": true
    },
    {
      "inputs": [
        {
          "internalType": "address",
          "name": "owner",
          "type": "address"
        },
        {
          "internalType": "address",
          "name": "operator",
          "type": "address"
        }
      ],
      "name": "isApprovedForAll",
      "outputs": [
        {
          "internalType": "bool",
          "name": "",
          "type": "bool"
        }
      ],
      "stateMutability": "view",
      "type": "function",
      "constant": true
    },
    {
      "inputs": [],
      "name": "name",
      "outputs": [
        {
          "internalType": "string",
          "name": "",
          "type": "string"
        }
      ],
      "stateMutability": "view",
      "type": "function",
      "constant": true
    },
    {
      "inputs": [],
      "name": "owner",
      "outputs": [
        {
          "internalType": "address",
          "name": "",
          "type": "address"
        }
      ],
      "stateMutability": "view",
      "type": "function",
      "constant": true
    },
    {
      "inputs": [
        {
          "internalType": "uint256",
          "name": "tokenId",
          "type": "uint256"
        }
      ],
      "name": "ownerOf",
      "outputs": [
        {
          "internalType": "address",
          "name": "",
          "type": "address"
        }
      ],
      "stateMutability": "view",
      "type": "function",
      "constant": true
    },
    {
      "inputs": [],
      "name": "renounceOwnership",
      "outputs": [],
      "stateMutability": "nonpayable",
      "type": "function"
    },
    {
      "inputs": [
        {
          "internalType": "address",
          "name": "from",
          "type": "address"
        },
        {
          "internalType": "address",
          "name": "to",
          "type": "address"
        },
        {
          "internalType": "uint256",
          "name": "tokenId",
          "type": "uint256"
        }
      ],
      "name": "safeTransferFrom",
      "outputs": [],
      "stateMutability": "nonpayable",
      "type": "function"
    },
    {
      "inputs": [
        {
          "internalType": "address",
          "name": "from",
          "type": "address"
        },
        {
          "internalType": "address",
          "name": "to",
          "type": "address"
        },
        {
          "internalType": "uint256",
          "name": "tokenId",
          "type": "uint256"
        },
        {
          "internalType": "bytes",
          "name": "_data",
          "type": "bytes"
        }
      ],
      "name": "safeTransferFrom",
      "outputs": [],
      "stateMutability": "nonpayable",
      "type": "function"
    },
    {
      "inputs": [
        {
          "internalType": "address",
          "name": "operator",
          "type": "address"
        },
        {
          "internalType": "bool",
          "name": "approved",
          "type": "bool"
        }
      ],
      "name": "setApprovalForAll",
      "outputs": [],
      "stateMutability": "nonpayable",
      "type": "function"
    },
    {
      "inputs": [
        {
          "internalType": "bytes4",
          "name": "interfaceId",
          "type": "bytes4"
        }
      ],
      "name": "supportsInterface",
      "outputs": [
        {
          "internalType": "bool",
          "name": "",
          "type": "bool"
        }
      ],
      "stateMutability": "view",
      "type": "function",
      "constant": true
    },
    {
      "inputs": [],
      "name": "symbol",
      "outputs": [
        {
          "internalType": "string",
          "name": "",
          "type": "string"
        }
      ],
      "stateMutability": "view",
      "type": "function",
      "constant": true
    },
    {
      "inputs": [
        {
          "internalType": "uint256",
          "name": "index",
          "type": "uint256"
        }
      ],
      "name": "tokenByIndex",
      "outputs": [
        {
          "internalType": "uint256",
          "name": "",
          "type": "uint256"
        }
      ],
      "stateMutability": "view",
      "type": "function",
      "constant": true
    },
    {
      "inputs": [
        {
          "internalType": "address",
          "name": "owner",
          "type": "address"
        },
        {
          "internalType": "uint256",
          "name": "index",
          "type": "uint256"
        }
      ],
      "name": "tokenOfOwnerByIndex",
      "outputs": [
        {
          "internalType": "uint256",
          "name": "",
          "type": "uint256"
        }
      ],
      "stateMutability": "view",
      "type": "function",
      "constant": true
    },
    {
      "inputs": [
        {
          "internalType": "uint256",
          "name": "tokenId",
          "type": "uint256"
        }
      ],
      "name": "tokenURI",
      "outputs": [
        {
          "internalType": "string",
          "name": "",
          "type": "string"
        }
      ],
      "stateMutability": "view",
      "type": "function",
      "constant": true
    },
    {
      "inputs": [],
      "name": "totalSupply",
      "outputs": [
        {
          "internalType": "uint256",
          "name": "",
          "type": "uint256"
        }
      ],
      "stateMutability": "view",
      "type": "function",
      "constant": true
    },
    {
      "inputs": [
        {
          "internalType": "address",
          "name": "from",
          "type": "address"
        },
        {
          "internalType": "address",
          "name": "to",
          "type": "address"
        },
        {
          "internalType": "uint256",
          "name": "tokenId",
          "type": "uint256"
        }
      ],
      "name": "transferFrom",
      "outputs": [],
      "stateMutability": "nonpayable",
      "type": "function"
    },
    {
      "inputs": [
        {
          "internalType": "address",
          "name": "newOwner",
          "type": "address"
        }
      ],
      "name": "transferOwnership",
      "outputs": [],
      "stateMutability": "nonpayable",
      "type": "function"
    },
    {
      "inputs": [
        {
          "internalType": "address",
          "name": "addressProductor",
          "type": "address"
        },
        {
          "internalType": "uint256",
          "name": "tokenId",
          "type": "uint256"
        },
        {
          "internalType": "string",
          "name": "tipoContenido",
          "type": "string"
        },
        {
          "internalType": "string",
          "name": "nombreComercialProductor",
          "type": "string"
        }
      ],
      "name": "crearCajon",
      "outputs": [],
      "stateMutability": "nonpayable",
      "type": "function"
    },
    {
      "inputs": [
        {
          "internalType": "uint256",
          "name": "tokenId",
          "type": "uint256"
        }
      ],
      "name": "obtenerCajon",
      "outputs": [
        {
          "internalType": "uint256",
          "name": "",
          "type": "uint256"
        },
        {
          "internalType": "string",
          "name": "",
          "type": "string"
        },
        {
          "components": [
            {
              "internalType": "address",
              "name": "addressLector",
              "type": "address"
            },
            {
              "internalType": "uint256",
              "name": "fecha",
              "type": "uint256"
            },
            {
              "internalType": "string",
              "name": "nombreComercial",
              "type": "string"
            }
          ],
          "internalType": "struct Cajon.puntoCadena[]",
          "name": "",
          "type": "tuple[]"
        }
      ],
      "stateMutability": "view",
      "type": "function",
      "constant": true
    },
    {
      "inputs": [
        {
          "internalType": "uint256",
          "name": "tokenId",
          "type": "uint256"
        }
      ],
      "name": "destruirCajon",
      "outputs": [],
      "stateMutability": "nonpayable",
      "type": "function"
    },
    {
      "inputs": [
        {
          "internalType": "uint256",
          "name": "tokenId",
          "type": "uint256"
        },
        {
          "internalType": "address",
          "name": "addressLector",
          "type": "address"
        },
        {
          "internalType": "string",
          "name": "nombreComercial",
          "type": "string"
        }
      ],
      "name": "agregarPuntoCadena",
      "outputs": [],
      "stateMutability": "nonpayable",
      "type": "function"
    },
    {
      "inputs": [
        {
          "internalType": "address",
          "name": "account",
          "type": "address"
        }
      ],
      "name": "addToWhitelistProductores",
      "outputs": [],
      "stateMutability": "nonpayable",
      "type": "function"
    },
    {
      "inputs": [
        {
          "internalType": "address",
          "name": "account",
          "type": "address"
        }
      ],
      "name": "addToWhitelistPuntosVenta",
      "outputs": [],
      "stateMutability": "nonpayable",
      "type": "function"
    },
    {
      "inputs": [
        {
          "internalType": "address",
          "name": "account",
          "type": "address"
        }
      ],
      "name": "addToWhitelistDistribuidores",
      "outputs": [],
      "stateMutability": "nonpayable",
      "type": "function"
    },
    {
      "inputs": [
        {
          "internalType": "address",
          "name": "account",
          "type": "address"
        }
      ],
      "name": "removeFromWhitelistProductores",
      "outputs": [],
      "stateMutability": "nonpayable",
      "type": "function"
    },
    {
      "inputs": [
        {
          "internalType": "address",
          "name": "account",
          "type": "address"
        }
      ],
      "name": "removeFromWhitelistPuntosVenta",
      "outputs": [],
      "stateMutability": "nonpayable",
      "type": "function"
    },
    {
      "inputs": [
        {
          "internalType": "address",
          "name": "account",
          "type": "address"
        }
      ],
      "name": "removeFromWhitelistDistribuidores",
      "outputs": [],
      "stateMutability": "nonpayable",
      "type": "function"
    }
  ],
  "bytecode": "0x60806040523480156200001157600080fd5b506040518060400160405280600f81526020017f4d792045524337323120546f6b656e00000000000000000000000000000000008152506040518060400160405280600481526020017f4d45543100000000000000000000000000000000000000000000000000000000815250620000966301ffc9a760e01b620001c960201b60201c565b8160069080519060200190620000ae929190620002a9565b508060079080519060200190620000c7929190620002a9565b50620000e06380ac58cd60e01b620001c960201b60201c565b620000f8635b5e139f60e01b620001c960201b60201c565b6200011063780e9d6360e01b620001c960201b60201c565b5050600062000124620002a160201b60201c565b905080600a60006101000a81548173ffffffffffffffffffffffffffffffffffffffff021916908373ffffffffffffffffffffffffffffffffffffffff1602179055508073ffffffffffffffffffffffffffffffffffffffff16600073ffffffffffffffffffffffffffffffffffffffff167f8be0079c531659141344cd1fd0a4f28419497f9722a3daafe3b4186f6b6457e060405160405180910390a350620003c4565b63ffffffff60e01b817bffffffffffffffffffffffffffffffffffffffffffffffffffffffff1916141562000235576040517f08c379a00000000000000000000000000000000000000000000000000000000081526004016200022c9062000391565b60405180910390fd5b6001600080837bffffffffffffffffffffffffffffffffffffffffffffffffffffffff19167bffffffffffffffffffffffffffffffffffffffffffffffffffffffff1916815260200190815260200160002060006101000a81548160ff02191690831515021790555050565b600033905090565b828054600181600116156101000203166002900490600052602060002090601f016020900481019282601f10620002ec57805160ff19168380011785556200031d565b828001600101855582156200031d579182015b828111156200031c578251825591602001919060010190620002ff565b5b5090506200032c919062000330565b5090565b5b808211156200034b57600081600090555060010162000331565b5090565b60006200035e601c83620003b3565b91507f4552433136353a20696e76616c696420696e74657266616365206964000000006000830152602082019050919050565b60006020820190508181036000830152620003ac816200034f565b9050919050565b600082825260208201905092915050565b61498580620003d46000396000f3fe608060405234801561001057600080fd5b50600436106101da5760003560e01c806373841b3511610104578063ba3fabbd116100a2578063d361fbe611610071578063d361fbe614610551578063e985e9c51461056d578063f2fde38b1461059d578063fd7f0349146105b9576101da565b8063ba3fabbd146104cd578063c581b9b5146104e9578063c87b56dd14610505578063cbfbbef714610535576101da565b806395d89b41116100de57806395d89b411461045b57806396cb8c7414610479578063a22cb46514610495578063b88d4fde146104b1576101da565b806373841b35146103ef5780637ac0df591461040b5780638da5cb5b1461043d576101da565b80633798baff1161017c5780636352211e1161014b5780636352211e146103675780636c0360eb1461039757806370a08231146103b5578063715018a6146103e5576101da565b80633798baff146102e357806342842e0e146102ff578063473ade3f1461031b5780634f6ccce714610337576101da565b8063095ea7b3116101b8578063095ea7b31461025d57806318160ddd1461027957806323b872dd146102975780632f745c59146102b3576101da565b806301ffc9a7146101df57806306fdde031461020f578063081812fc1461022d575b600080fd5b6101f960048036038101906101f4919061369e565b6105d5565b6040516102069190614310565b60405180910390f35b61021761063c565b604051610224919061432b565b60405180910390f35b610247600480360381019061024291906136f0565b6106de565b60405161025491906142a9565b60405180910390f35b610277600480360381019061027291906135cf565b610763565b005b61028161087b565b60405161028e919061462d565b60405180910390f35b6102b160048036038101906102ac91906134c9565b61088c565b005b6102cd60048036038101906102c891906135cf565b6108ec565b6040516102da919061462d565b60405180910390f35b6102fd60048036038101906102f89190613464565b610947565b005b610319600480360381019061031491906134c9565b610a39565b005b61033560048036038101906103309190613464565b610a59565b005b610351600480360381019061034c91906136f0565b610b4b565b60405161035e919061462d565b60405180910390f35b610381600480360381019061037c91906136f0565b610b6e565b60405161038e91906142a9565b60405180910390f35b61039f610ba5565b6040516103ac919061432b565b60405180910390f35b6103cf60048036038101906103ca9190613464565b610c47565b6040516103dc919061462d565b60405180910390f35b6103ed610d06565b005b61040960048036038101906104049190613464565b610e5e565b005b610425600480360381019061042091906136f0565b610f50565b60405161043493929190614648565b60405180910390f35b6104456111ff565b60405161045291906142a9565b60405180910390f35b610463611229565b604051610470919061432b565b60405180910390f35b610493600480360381019061048e91906136f0565b6112cb565b005b6104af60048036038101906104aa9190613593565b611487565b005b6104cb60048036038101906104c69190613518565b611608565b005b6104e760048036038101906104e29190613719565b61166a565b005b61050360048036038101906104fe919061360b565b611887565b005b61051f600480360381019061051a91906136f0565b6119aa565b60405161052c919061432b565b60405180910390f35b61054f600480360381019061054a9190613464565b611b35565b005b61056b60048036038101906105669190613464565b611c27565b005b6105876004803603810190610582919061348d565b611d19565b6040516105949190614310565b60405180910390f35b6105b760048036038101906105b29190613464565b611dad565b005b6105d360048036038101906105ce9190613464565b611f74565b005b6000806000837bffffffffffffffffffffffffffffffffffffffffffffffffffffffff19167bffffffffffffffffffffffffffffffffffffffffffffffffffffffff1916815260200190815260200160002060009054906101000a900460ff169050919050565b606060068054600181600116156101000203166002900480601f0160208091040260200160405190810160405280929190818152602001828054600181600116156101000203166002900480156106d45780601f106106a9576101008083540402835291602001916106d4565b820191906000526020600020905b8154815290600101906020018083116106b757829003601f168201915b5050505050905090565b60006106e982612066565b610728576040517f08c379a000000000000000000000000000000000000000000000000000000000815260040161071f9061450d565b60405180910390fd5b6004600083815260200190815260200160002060009054906101000a900473ffffffffffffffffffffffffffffffffffffffff169050919050565b600061076e82610b6e565b90508073ffffffffffffffffffffffffffffffffffffffff168373ffffffffffffffffffffffffffffffffffffffff1614156107df576040517f08c379a00000000000000000000000000000000000000000000000000000000081526004016107d6906145ad565b60405180910390fd5b8073ffffffffffffffffffffffffffffffffffffffff166107fe612083565b73ffffffffffffffffffffffffffffffffffffffff16148061082d575061082c81610827612083565b611d19565b5b61086c576040517f08c379a00000000000000000000000000000000000000000000000000000000081526004016108639061446d565b60405180910390fd5b610876838361208b565b505050565b60006108876002612144565b905090565b61089d610897612083565b82612159565b6108dc576040517f08c379a00000000000000000000000000000000000000000000000000000000081526004016108d3906145cd565b60405180910390fd5b6108e7838383612237565b505050565b600061093f82600160008673ffffffffffffffffffffffffffffffffffffffff1673ffffffffffffffffffffffffffffffffffffffff16815260200190815260200160002061244e90919063ffffffff16565b905092915050565b61094f612083565b73ffffffffffffffffffffffffffffffffffffffff16600a60009054906101000a900473ffffffffffffffffffffffffffffffffffffffff1673ffffffffffffffffffffffffffffffffffffffff16146109de576040517f08c379a00000000000000000000000000000000000000000000000000000000081526004016109d59061452d565b60405180910390fd5b6000600b60008373ffffffffffffffffffffffffffffffffffffffff1673ffffffffffffffffffffffffffffffffffffffff16815260200190815260200160002060006101000a81548160ff02191690831515021790555050565b610a5483838360405180602001604052806000815250611608565b505050565b610a61612083565b73ffffffffffffffffffffffffffffffffffffffff16600a60009054906101000a900473ffffffffffffffffffffffffffffffffffffffff1673ffffffffffffffffffffffffffffffffffffffff1614610af0576040517f08c379a0000000000000000000000000000000000000000000000000000000008152600401610ae79061452d565b60405180910390fd5b6001600d60008373ffffffffffffffffffffffffffffffffffffffff1673ffffffffffffffffffffffffffffffffffffffff16815260200190815260200160002060006101000a81548160ff02191690831515021790555050565b600080610b6283600261246890919063ffffffff16565b50905080915050919050565b6000610b9e826040518060600160405280602981526020016149276029913960026124949092919063ffffffff16565b9050919050565b606060098054600181600116156101000203166002900480601f016020809104026020016040519081016040528092919081815260200182805460018160011615610100020316600290048015610c3d5780601f10610c1257610100808354040283529160200191610c3d565b820191906000526020600020905b815481529060010190602001808311610c2057829003601f168201915b5050505050905090565b60008073ffffffffffffffffffffffffffffffffffffffff168273ffffffffffffffffffffffffffffffffffffffff161415610cb8576040517f08c379a0000000000000000000000000000000000000000000000000000000008152600401610caf9061448d565b60405180910390fd5b610cff600160008473ffffffffffffffffffffffffffffffffffffffff1673ffffffffffffffffffffffffffffffffffffffff1681526020019081526020016000206124b3565b9050919050565b610d0e612083565b73ffffffffffffffffffffffffffffffffffffffff16600a60009054906101000a900473ffffffffffffffffffffffffffffffffffffffff1673ffffffffffffffffffffffffffffffffffffffff1614610d9d576040517f08c379a0000000000000000000000000000000000000000000000000000000008152600401610d949061452d565b60405180910390fd5b600073ffffffffffffffffffffffffffffffffffffffff16600a60009054906101000a900473ffffffffffffffffffffffffffffffffffffffff1673ffffffffffffffffffffffffffffffffffffffff167f8be0079c531659141344cd1fd0a4f28419497f9722a3daafe3b4186f6b6457e060405160405180910390a36000600a60006101000a81548173ffffffffffffffffffffffffffffffffffffffff021916908373ffffffffffffffffffffffffffffffffffffffff160217905550565b610e66612083565b73ffffffffffffffffffffffffffffffffffffffff16600a60009054906101000a900473ffffffffffffffffffffffffffffffffffffffff1673ffffffffffffffffffffffffffffffffffffffff1614610ef5576040517f08c379a0000000000000000000000000000000000000000000000000000000008152600401610eec9061452d565b60405180910390fd5b6000600c60008373ffffffffffffffffffffffffffffffffffffffff1673ffffffffffffffffffffffffffffffffffffffff16815260200190815260200160002060006101000a81548160ff02191690831515021790555050565b6000606080600e600085815260200190815260200160002060020160009054906101000a900460ff16610fb8576040517f08c379a0000000000000000000000000000000000000000000000000000000008152600401610faf9061458d565b60405180910390fd5b600e600085815260200190815260200160002060000154600e6000868152602001908152602001600020600101600e6000878152602001908152602001600020600301818054600181600116156101000203166002900480601f0160208091040260200160405190810160405280929190818152602001828054600181600116156101000203166002900480156110905780601f1061106557610100808354040283529160200191611090565b820191906000526020600020905b81548152906001019060200180831161107357829003601f168201915b5050505050915080805480602002602001604051908101604052809291908181526020016000905b828210156111ec57838290600052602060002090600302016040518060600160405290816000820160009054906101000a900473ffffffffffffffffffffffffffffffffffffffff1673ffffffffffffffffffffffffffffffffffffffff1673ffffffffffffffffffffffffffffffffffffffff16815260200160018201548152602001600282018054600181600116156101000203166002900480601f0160208091040260200160405190810160405280929190818152602001828054600181600116156101000203166002900480156111d45780601f106111a9576101008083540402835291602001916111d4565b820191906000526020600020905b8154815290600101906020018083116111b757829003601f168201915b505050505081525050815260200190600101906110b8565b5050505090509250925092509193909250565b6000600a60009054906101000a900473ffffffffffffffffffffffffffffffffffffffff16905090565b606060078054600181600116156101000203166002900480601f0160208091040260200160405190810160405280929190818152602001828054600181600116156101000203166002900480156112c15780601f10611296576101008083540402835291602001916112c1565b820191906000526020600020905b8154815290600101906020018083116112a457829003601f168201915b5050505050905090565b60011515600c60003373ffffffffffffffffffffffffffffffffffffffff1673ffffffffffffffffffffffffffffffffffffffff16815260200190815260200160002060009054906101000a900460ff1615151461135e576040517f08c379a00000000000000000000000000000000000000000000000000000000081526004016113559061440d565b60405180910390fd5b3373ffffffffffffffffffffffffffffffffffffffff1661137e82610b6e565b73ffffffffffffffffffffffffffffffffffffffff16146113d4576040517f08c379a00000000000000000000000000000000000000000000000000000000081526004016113cb9061460d565b60405180910390fd5b6113dd816124c8565b6000600e60008381526020019081526020016000206000018190555060405180602001604052806000815250600e600083815260200190815260200160002060010190805190602001906114329291906131bd565b50600e60008281526020019081526020016000206003016000611455919061323d565b6000600e600083815260200190815260200160002060020160006101000a81548160ff02191690831515021790555050565b61148f612083565b73ffffffffffffffffffffffffffffffffffffffff168273ffffffffffffffffffffffffffffffffffffffff1614156114fd576040517f08c379a00000000000000000000000000000000000000000000000000000000081526004016114f4906143ed565b60405180910390fd5b806005600061150a612083565b73ffffffffffffffffffffffffffffffffffffffff1673ffffffffffffffffffffffffffffffffffffffff16815260200190815260200160002060008473ffffffffffffffffffffffffffffffffffffffff1673ffffffffffffffffffffffffffffffffffffffff16815260200190815260200160002060006101000a81548160ff0219169083151502179055508173ffffffffffffffffffffffffffffffffffffffff166115b7612083565b73ffffffffffffffffffffffffffffffffffffffff167f17307eab39ab6107e8899845ad3d59bd9653f200f220920489ca2b5937696c31836040516115fc9190614310565b60405180910390a35050565b611619611613612083565b83612159565b611658576040517f08c379a000000000000000000000000000000000000000000000000000000000815260040161164f906145cd565b60405180910390fd5b61166484848484612602565b50505050565b60011515600d60003373ffffffffffffffffffffffffffffffffffffffff1673ffffffffffffffffffffffffffffffffffffffff16815260200190815260200160002060009054906101000a900460ff161515146116fd576040517f08c379a00000000000000000000000000000000000000000000000000000000081526004016116f49061442d565b60405180910390fd5b60011515600c60003373ffffffffffffffffffffffffffffffffffffffff1673ffffffffffffffffffffffffffffffffffffffff16815260200190815260200160002060009054906101000a900460ff16151514611790576040517f08c379a00000000000000000000000000000000000000000000000000000000081526004016117879061440d565b60405180910390fd5b600042905061179d613261565b60405180606001604052808573ffffffffffffffffffffffffffffffffffffffff168152602001838152602001848152509050600e600086815260200190815260200160002060030181908060018154018082558091505060019003906000526020600020906003020160009091909190915060008201518160000160006101000a81548173ffffffffffffffffffffffffffffffffffffffff021916908373ffffffffffffffffffffffffffffffffffffffff16021790555060208201518160010155604082015181600201908051906020019061187d9291906131bd565b5050505050505050565b60011515600b60003373ffffffffffffffffffffffffffffffffffffffff1673ffffffffffffffffffffffffffffffffffffffff16815260200190815260200160002060009054906101000a900460ff1615151461191a576040517f08c379a0000000000000000000000000000000000000000000000000000000008152600401611911906144ad565b60405180910390fd5b611924848461265e565b82600e60008581526020019081526020016000206000018190555081600e600085815260200190815260200160002060010190805190602001906119699291906131bd565b506001600e600085815260200190815260200160002060020160006101000a81548160ff0219169083151502179055506119a483858361166a565b50505050565b60606119b582612066565b6119f4576040517f08c379a00000000000000000000000000000000000000000000000000000000081526004016119eb9061456d565b60405180910390fd5b6060600860008481526020019081526020016000208054600181600116156101000203166002900480601f016020809104026020016040519081016040528092919081815260200182805460018160011615610100020316600290048015611a9d5780601f10611a7257610100808354040283529160200191611a9d565b820191906000526020600020905b815481529060010190602001808311611a8057829003601f168201915b50505050509050600060098054600181600116156101000203166002900490501415611acc5780915050611b30565b600081511115611b0157600981604051602001611aea929190614285565b604051602081830303815290604052915050611b30565b6009611b0c846127ec565b604051602001611b1d929190614285565b6040516020818303038152906040529150505b919050565b611b3d612083565b73ffffffffffffffffffffffffffffffffffffffff16600a60009054906101000a900473ffffffffffffffffffffffffffffffffffffffff1673ffffffffffffffffffffffffffffffffffffffff1614611bcc576040517f08c379a0000000000000000000000000000000000000000000000000000000008152600401611bc39061452d565b60405180910390fd5b6000600d60008373ffffffffffffffffffffffffffffffffffffffff1673ffffffffffffffffffffffffffffffffffffffff16815260200190815260200160002060006101000a81548160ff02191690831515021790555050565b611c2f612083565b73ffffffffffffffffffffffffffffffffffffffff16600a60009054906101000a900473ffffffffffffffffffffffffffffffffffffffff1673ffffffffffffffffffffffffffffffffffffffff1614611cbe576040517f08c379a0000000000000000000000000000000000000000000000000000000008152600401611cb59061452d565b60405180910390fd5b6001600b60008373ffffffffffffffffffffffffffffffffffffffff1673ffffffffffffffffffffffffffffffffffffffff16815260200190815260200160002060006101000a81548160ff02191690831515021790555050565b6000600560008473ffffffffffffffffffffffffffffffffffffffff1673ffffffffffffffffffffffffffffffffffffffff16815260200190815260200160002060008373ffffffffffffffffffffffffffffffffffffffff1673ffffffffffffffffffffffffffffffffffffffff16815260200190815260200160002060009054906101000a900460ff16905092915050565b611db5612083565b73ffffffffffffffffffffffffffffffffffffffff16600a60009054906101000a900473ffffffffffffffffffffffffffffffffffffffff1673ffffffffffffffffffffffffffffffffffffffff1614611e44576040517f08c379a0000000000000000000000000000000000000000000000000000000008152600401611e3b9061452d565b60405180910390fd5b600073ffffffffffffffffffffffffffffffffffffffff168173ffffffffffffffffffffffffffffffffffffffff161415611eb4576040517f08c379a0000000000000000000000000000000000000000000000000000000008152600401611eab9061438d565b60405180910390fd5b8073ffffffffffffffffffffffffffffffffffffffff16600a60009054906101000a900473ffffffffffffffffffffffffffffffffffffffff1673ffffffffffffffffffffffffffffffffffffffff167f8be0079c531659141344cd1fd0a4f28419497f9722a3daafe3b4186f6b6457e060405160405180910390a380600a60006101000a81548173ffffffffffffffffffffffffffffffffffffffff021916908373ffffffffffffffffffffffffffffffffffffffff16021790555050565b611f7c612083565b73ffffffffffffffffffffffffffffffffffffffff16600a60009054906101000a900473ffffffffffffffffffffffffffffffffffffffff1673ffffffffffffffffffffffffffffffffffffffff161461200b576040517f08c379a00000000000000000000000000000000000000000000000000000000081526004016120029061452d565b60405180910390fd5b6001600c60008373ffffffffffffffffffffffffffffffffffffffff1673ffffffffffffffffffffffffffffffffffffffff16815260200190815260200160002060006101000a81548160ff02191690831515021790555050565b600061207c82600261293390919063ffffffff16565b9050919050565b600033905090565b816004600083815260200190815260200160002060006101000a81548173ffffffffffffffffffffffffffffffffffffffff021916908373ffffffffffffffffffffffffffffffffffffffff160217905550808273ffffffffffffffffffffffffffffffffffffffff166120fe83610b6e565b73ffffffffffffffffffffffffffffffffffffffff167f8c5be1e5ebec7d5bd14f71427d1e84f3dd0314c0f7b2291e5b200ac8c7c3b92560405160405180910390a45050565b60006121528260000161294d565b9050919050565b600061216482612066565b6121a3576040517f08c379a000000000000000000000000000000000000000000000000000000000815260040161219a9061444d565b60405180910390fd5b60006121ae83610b6e565b90508073ffffffffffffffffffffffffffffffffffffffff168473ffffffffffffffffffffffffffffffffffffffff16148061221d57508373ffffffffffffffffffffffffffffffffffffffff16612205846106de565b73ffffffffffffffffffffffffffffffffffffffff16145b8061222e575061222d8185611d19565b5b91505092915050565b8273ffffffffffffffffffffffffffffffffffffffff1661225782610b6e565b73ffffffffffffffffffffffffffffffffffffffff16146122ad576040517f08c379a00000000000000000000000000000000000000000000000000000000081526004016122a49061454d565b60405180910390fd5b600073ffffffffffffffffffffffffffffffffffffffff168273ffffffffffffffffffffffffffffffffffffffff16141561231d576040517f08c379a0000000000000000000000000000000000000000000000000000000008152600401612314906143cd565b60405180910390fd5b61232883838361295e565b61233360008261208b565b61238481600160008673ffffffffffffffffffffffffffffffffffffffff1673ffffffffffffffffffffffffffffffffffffffff16815260200190815260200160002061296390919063ffffffff16565b506123d681600160008573ffffffffffffffffffffffffffffffffffffffff1673ffffffffffffffffffffffffffffffffffffffff16815260200190815260200160002061297d90919063ffffffff16565b506123ed818360026129979092919063ffffffff16565b50808273ffffffffffffffffffffffffffffffffffffffff168473ffffffffffffffffffffffffffffffffffffffff167fddf252ad1be2c89b69c2b068fc378daa952ba7f163c4a11628f55a4df523b3ef60405160405180910390a4505050565b600061245d83600001836129cc565b60001c905092915050565b60008060008061247b8660000186612a39565b915091508160001c8160001c9350935050509250929050565b60006124a7846000018460001b84612abc565b60001c90509392505050565b60006124c182600001612b4d565b9050919050565b60006124d382610b6e565b90506124e18160008461295e565b6124ec60008361208b565b6000600860008481526020019081526020016000208054600181600116156101000203166002900490501461253b5760086000838152602001908152602001600020600061253a9190613298565b5b61258c82600160008473ffffffffffffffffffffffffffffffffffffffff1673ffffffffffffffffffffffffffffffffffffffff16815260200190815260200160002061296390919063ffffffff16565b506125a1826002612b5e90919063ffffffff16565b5081600073ffffffffffffffffffffffffffffffffffffffff168273ffffffffffffffffffffffffffffffffffffffff167fddf252ad1be2c89b69c2b068fc378daa952ba7f163c4a11628f55a4df523b3ef60405160405180910390a45050565b61260d848484612237565b61261984848484612b78565b612658576040517f08c379a000000000000000000000000000000000000000000000000000000000815260040161264f9061436d565b60405180910390fd5b50505050565b600073ffffffffffffffffffffffffffffffffffffffff168273ffffffffffffffffffffffffffffffffffffffff1614156126ce576040517f08c379a00000000000000000000000000000000000000000000000000000000081526004016126c5906144ed565b60405180910390fd5b6126d781612066565b15612717576040517f08c379a000000000000000000000000000000000000000000000000000000000815260040161270e906143ad565b60405180910390fd5b6127236000838361295e565b61277481600160008573ffffffffffffffffffffffffffffffffffffffff1673ffffffffffffffffffffffffffffffffffffffff16815260200190815260200160002061297d90919063ffffffff16565b5061278b818360026129979092919063ffffffff16565b50808273ffffffffffffffffffffffffffffffffffffffff16600073ffffffffffffffffffffffffffffffffffffffff167fddf252ad1be2c89b69c2b068fc378daa952ba7f163c4a11628f55a4df523b3ef60405160405180910390a45050565b60606000821415612834576040518060400160405280600181526020017f3000000000000000000000000000000000000000000000000000000000000000815250905061292e565b600082905060005b6000821461285e578080600101915050600a828161285657fe5b04915061283c565b60608167ffffffffffffffff8111801561287757600080fd5b506040519080825280601f01601f1916602001820160405280156128aa5781602001600182028036833780820191505090505b50905060006001830390508593505b6000841461292657600a84816128cb57fe5b0660300160f81b828280600190039350815181106128e557fe5b60200101907effffffffffffffffffffffffffffffffffffffffffffffffffffffffffffff1916908160001a905350600a848161291e57fe5b0493506128b9565b819450505050505b919050565b6000612945836000018360001b612cdc565b905092915050565b600081600001805490509050919050565b505050565b6000612975836000018360001b612cff565b905092915050565b600061298f836000018360001b612de7565b905092915050565b60006129c3846000018460001b8473ffffffffffffffffffffffffffffffffffffffff1660001b612e57565b90509392505050565b600081836000018054905011612a17576040517f08c379a0000000000000000000000000000000000000000000000000000000008152600401612a0e9061434d565b60405180910390fd5b826000018281548110612a2657fe5b9060005260206000200154905092915050565b60008082846000018054905011612a85576040517f08c379a0000000000000000000000000000000000000000000000000000000008152600401612a7c906144cd565b60405180910390fd5b6000846000018481548110612a9657fe5b906000526020600020906002020190508060000154816001015492509250509250929050565b60008084600101600085815260200190815260200160002054905060008114158390612b1e576040517f08c379a0000000000000000000000000000000000000000000000000000000008152600401612b15919061432b565b60405180910390fd5b50846000016001820381548110612b3157fe5b9060005260206000209060020201600101549150509392505050565b600081600001805490509050919050565b6000612b70836000018360001b612f33565b905092915050565b6000612b998473ffffffffffffffffffffffffffffffffffffffff1661304c565b612ba65760019050612cd4565b6060612c6d63150b7a0260e01b612bbb612083565b888787604051602401612bd194939291906142c4565b604051602081830303815290604052907bffffffffffffffffffffffffffffffffffffffffffffffffffffffff19166020820180517bffffffffffffffffffffffffffffffffffffffffffffffffffffffff83818316178352505050506040518060600160405280603281526020016148f5603291398773ffffffffffffffffffffffffffffffffffffffff1661305f9092919063ffffffff16565b9050600081806020019051810190612c8591906136c7565b905063150b7a0260e01b7bffffffffffffffffffffffffffffffffffffffffffffffffffffffff1916817bffffffffffffffffffffffffffffffffffffffffffffffffffffffff191614925050505b949350505050565b600080836001016000848152602001908152602001600020541415905092915050565b60008083600101600084815260200190815260200160002054905060008114612ddb5760006001820390506000600186600001805490500390506000866000018281548110612d4a57fe5b9060005260206000200154905080876000018481548110612d6757fe5b9060005260206000200181905550600183018760010160008381526020019081526020016000208190555086600001805480612d9f57fe5b60019003818190600052602060002001600090559055866001016000878152602001908152602001600020600090556001945050505050612de1565b60009150505b92915050565b6000612df38383613077565b612e4c578260000182908060018154018082558091505060019003906000526020600020016000909190919091505582600001805490508360010160008481526020019081526020016000208190555060019050612e51565b600090505b92915050565b6000808460010160008581526020019081526020016000205490506000811415612efe57846000016040518060400160405280868152602001858152509080600181540180825580915050600190039060005260206000209060020201600090919091909150600082015181600001556020820151816001015550508460000180549050856001016000868152602001908152602001600020819055506001915050612f2c565b82856000016001830381548110612f1157fe5b90600052602060002090600202016001018190555060009150505b9392505050565b600080836001016000848152602001908152602001600020549050600081146130405760006001820390506000600186600001805490500390506000866000018281548110612f7e57fe5b9060005260206000209060020201905080876000018481548110612f9e57fe5b9060005260206000209060020201600082015481600001556001820154816001015590505060018301876001016000836000015481526020019081526020016000208190555086600001805480612ff157fe5b6001900381819060005260206000209060020201600080820160009055600182016000905550509055866001016000878152602001908152602001600020600090556001945050505050613046565b60009150505b92915050565b600080823b905060008111915050919050565b606061306e848460008561309a565b90509392505050565b600080836001016000848152602001908152602001600020541415905092915050565b60606130a58561304c565b6130e4576040517f08c379a00000000000000000000000000000000000000000000000000000000081526004016130db906145ed565b60405180910390fd5b600060608673ffffffffffffffffffffffffffffffffffffffff16858760405161310e919061426e565b60006040518083038185875af1925050503d806000811461314b576040519150601f19603f3d011682016040523d82523d6000602084013e613150565b606091505b509150915081156131655780925050506131b5565b6000815111156131785780518082602001fd5b836040517f08c379a00000000000000000000000000000000000000000000000000000000081526004016131ac919061432b565b60405180910390fd5b949350505050565b828054600181600116156101000203166002900490600052602060002090601f016020900481019282601f106131fe57805160ff191683800117855561322c565b8280016001018555821561322c579182015b8281111561322b578251825591602001919060010190613210565b5b50905061323991906132e0565b5090565b508054600082556003029060005260206000209081019061325e91906132fd565b50565b6040518060600160405280600073ffffffffffffffffffffffffffffffffffffffff16815260200160008152602001606081525090565b50805460018160011615610100020316600290046000825580601f106132be57506132dd565b601f0160209004906000526020600020908101906132dc91906132e0565b5b50565b5b808211156132f95760008160009055506001016132e1565b5090565b5b8082111561334f57600080820160006101000a81549073ffffffffffffffffffffffffffffffffffffffff021916905560018201600090556002820160006133469190613298565b506003016132fe565b5090565b60008135905061336281614898565b92915050565b600081359050613377816148af565b92915050565b60008135905061338c816148c6565b92915050565b6000815190506133a1816148c6565b92915050565b600082601f8301126133b857600080fd5b81356133cb6133c6826146ba565b61468d565b915080825260208301602083018583830111156133e757600080fd5b6133f2838284614845565b50505092915050565b600082601f83011261340c57600080fd5b813561341f61341a826146e6565b61468d565b9150808252602083016020830185838301111561343b57600080fd5b613446838284614845565b50505092915050565b60008135905061345e816148dd565b92915050565b60006020828403121561347657600080fd5b600061348484828501613353565b91505092915050565b600080604083850312156134a057600080fd5b60006134ae85828601613353565b92505060206134bf85828601613353565b9150509250929050565b6000806000606084860312156134de57600080fd5b60006134ec86828701613353565b93505060206134fd86828701613353565b925050604061350e8682870161344f565b9150509250925092565b6000806000806080858703121561352e57600080fd5b600061353c87828801613353565b945050602061354d87828801613353565b935050604061355e8782880161344f565b925050606085013567ffffffffffffffff81111561357b57600080fd5b613587878288016133a7565b91505092959194509250565b600080604083850312156135a657600080fd5b60006135b485828601613353565b92505060206135c585828601613368565b9150509250929050565b600080604083850312156135e257600080fd5b60006135f085828601613353565b92505060206136018582860161344f565b9150509250929050565b6000806000806080858703121561362157600080fd5b600061362f87828801613353565b94505060206136408782880161344f565b935050604085013567ffffffffffffffff81111561365d57600080fd5b613669878288016133fb565b925050606085013567ffffffffffffffff81111561368657600080fd5b613692878288016133fb565b91505092959194509250565b6000602082840312156136b057600080fd5b60006136be8482850161337d565b91505092915050565b6000602082840312156136d957600080fd5b60006136e784828501613392565b91505092915050565b60006020828403121561370257600080fd5b60006137108482850161344f565b91505092915050565b60008060006060848603121561372e57600080fd5b600061373c8682870161344f565b935050602061374d86828701613353565b925050604084013567ffffffffffffffff81111561376a57600080fd5b613776868287016133fb565b9150509250925092565b600061378c8383614200565b905092915050565b61379d816147d1565b82525050565b6137ac816147bf565b82525050565b6137bb816147bf565b82525050565b60006137cc82614737565b6137d68185614765565b9350836020820285016137e885614712565b8060005b8581101561382457848403895281516138058582613780565b945061381083614758565b925060208a019950506001810190506137ec565b50829750879550505050505092915050565b61383f816147e3565b82525050565b600061385082614742565b61385a8185614776565b935061386a818560208601614854565b61387381614887565b840191505092915050565b600061388982614742565b6138938185614787565b93506138a3818560208601614854565b80840191505092915050565b60006138ba8261474d565b6138c48185614792565b93506138d4818560208601614854565b6138dd81614887565b840191505092915050565b60006138f38261474d565b6138fd81856147a3565b935061390d818560208601614854565b61391681614887565b840191505092915050565b600061392c8261474d565b61393681856147b4565b9350613946818560208601614854565b80840191505092915050565b60008154600181166000811461396f5760018114613994576139d8565b607f600283041661398081876147b4565b955060ff19831686528086019350506139d8565b600282046139a281876147b4565b95506139ad85614722565b60005b828110156139cf578154818901526001820191506020810190506139b0565b82880195505050505b505092915050565b60006139ed6022836147a3565b91507f456e756d657261626c655365743a20696e646578206f7574206f6620626f756e60008301527f64730000000000000000000000000000000000000000000000000000000000006020830152604082019050919050565b6000613a536032836147a3565b91507f4552433732313a207472616e7366657220746f206e6f6e20455243373231526560008301527f63656976657220696d706c656d656e74657200000000000000000000000000006020830152604082019050919050565b6000613ab96026836147a3565b91507f4f776e61626c653a206e6577206f776e657220697320746865207a65726f206160008301527f64647265737300000000000000000000000000000000000000000000000000006020830152604082019050919050565b6000613b1f601c836147a3565b91507f4552433732313a20746f6b656e20616c7265616479206d696e746564000000006000830152602082019050919050565b6000613b5f6024836147a3565b91507f4552433732313a207472616e7366657220746f20746865207a65726f2061646460008301527f72657373000000000000000000000000000000000000000000000000000000006020830152604082019050919050565b6000613bc56019836147a3565b91507f4552433732313a20617070726f766520746f2063616c6c6572000000000000006000830152602082019050919050565b6000613c056022836147a3565b91507f6973206e6f7420696e207468652077686974656c69737450756e746f7356656e60008301527f74610000000000000000000000000000000000000000000000000000000000006020830152604082019050919050565b6000613c6b6025836147a3565b91507f6973206e6f7420696e207468652077686974656c69737444697374726962756960008301527f646f7265730000000000000000000000000000000000000000000000000000006020830152604082019050919050565b6000613cd1602c836147a3565b91507f4552433732313a206f70657261746f7220717565727920666f72206e6f6e657860008301527f697374656e7420746f6b656e00000000000000000000000000000000000000006020830152604082019050919050565b6000613d376038836147a3565b91507f4552433732313a20617070726f76652063616c6c6572206973206e6f74206f7760008301527f6e6572206e6f7220617070726f76656420666f7220616c6c00000000000000006020830152604082019050919050565b6000613d9d602a836147a3565b91507f4552433732313a2062616c616e636520717565727920666f7220746865207a6560008301527f726f2061646472657373000000000000000000000000000000000000000000006020830152604082019050919050565b6000613e036022836147a3565b91507f6973206e6f7420696e207468652077686974656c69737450726f647563746f7260008301527f65730000000000000000000000000000000000000000000000000000000000006020830152604082019050919050565b6000613e696022836147a3565b91507f456e756d657261626c654d61703a20696e646578206f7574206f6620626f756e60008301527f64730000000000000000000000000000000000000000000000000000000000006020830152604082019050919050565b6000613ecf6020836147a3565b91507f4552433732313a206d696e7420746f20746865207a65726f20616464726573736000830152602082019050919050565b6000613f0f602c836147a3565b91507f4552433732313a20617070726f76656420717565727920666f72206e6f6e657860008301527f697374656e7420746f6b656e00000000000000000000000000000000000000006020830152604082019050919050565b6000613f756020836147a3565b91507f4f776e61626c653a2063616c6c6572206973206e6f7420746865206f776e65726000830152602082019050919050565b6000613fb56029836147a3565b91507f4552433732313a207472616e73666572206f6620746f6b656e2074686174206960008301527f73206e6f74206f776e00000000000000000000000000000000000000000000006020830152604082019050919050565b600061401b602f836147a3565b91507f4552433732314d657461646174613a2055524920717565727920666f72206e6f60008301527f6e6578697374656e7420746f6b656e00000000000000000000000000000000006020830152604082019050919050565b60006140816018836147a3565b91507f74686520746f6b656e20646f65736e27742065786973747300000000000000006000830152602082019050919050565b60006140c16021836147a3565b91507f4552433732313a20617070726f76616c20746f2063757272656e74206f776e6560008301527f72000000000000000000000000000000000000000000000000000000000000006020830152604082019050919050565b60006141276031836147a3565b91507f4552433732313a207472616e736665722063616c6c6572206973206e6f74206f60008301527f776e6572206e6f7220617070726f7665640000000000000000000000000000006020830152604082019050919050565b600061418d601d836147a3565b91507f416464726573733a2063616c6c20746f206e6f6e2d636f6e74726163740000006000830152602082019050919050565b60006141cd6010836147a3565b91507f6973206e6f7420746865206f776e6572000000000000000000000000000000006000830152602082019050919050565b600060608301600083015161421860008601826137a3565b50602083015161422b6020860182614250565b506040830151848203604086015261424382826138af565b9150508091505092915050565b6142598161483b565b82525050565b6142688161483b565b82525050565b600061427a828461387e565b915081905092915050565b60006142918285613952565b915061429d8284613921565b91508190509392505050565b60006020820190506142be60008301846137b2565b92915050565b60006080820190506142d96000830187613794565b6142e660208301866137b2565b6142f3604083018561425f565b81810360608301526143058184613845565b905095945050505050565b60006020820190506143256000830184613836565b92915050565b6000602082019050818103600083015261434581846138e8565b905092915050565b60006020820190508181036000830152614366816139e0565b9050919050565b6000602082019050818103600083015261438681613a46565b9050919050565b600060208201905081810360008301526143a681613aac565b9050919050565b600060208201905081810360008301526143c681613b12565b9050919050565b600060208201905081810360008301526143e681613b52565b9050919050565b6000602082019050818103600083015261440681613bb8565b9050919050565b6000602082019050818103600083015261442681613bf8565b9050919050565b6000602082019050818103600083015261444681613c5e565b9050919050565b6000602082019050818103600083015261446681613cc4565b9050919050565b6000602082019050818103600083015261448681613d2a565b9050919050565b600060208201905081810360008301526144a681613d90565b9050919050565b600060208201905081810360008301526144c681613df6565b9050919050565b600060208201905081810360008301526144e681613e5c565b9050919050565b6000602082019050818103600083015261450681613ec2565b9050919050565b6000602082019050818103600083015261452681613f02565b9050919050565b6000602082019050818103600083015261454681613f68565b9050919050565b6000602082019050818103600083015261456681613fa8565b9050919050565b600060208201905081810360008301526145868161400e565b9050919050565b600060208201905081810360008301526145a681614074565b9050919050565b600060208201905081810360008301526145c6816140b4565b9050919050565b600060208201905081810360008301526145e68161411a565b9050919050565b6000602082019050818103600083015261460681614180565b9050919050565b60006020820190508181036000830152614626816141c0565b9050919050565b6000602082019050614642600083018461425f565b92915050565b600060608201905061465d600083018661425f565b818103602083015261466f81856138e8565b9050818103604083015261468381846137c1565b9050949350505050565b6000604051905081810181811067ffffffffffffffff821117156146b057600080fd5b8060405250919050565b600067ffffffffffffffff8211156146d157600080fd5b601f19601f8301169050602081019050919050565b600067ffffffffffffffff8211156146fd57600080fd5b601f19601f8301169050602081019050919050565b6000819050602082019050919050565b60008190508160005260206000209050919050565b600081519050919050565b600081519050919050565b600081519050919050565b6000602082019050919050565b600082825260208201905092915050565b600082825260208201905092915050565b600081905092915050565b600082825260208201905092915050565b600082825260208201905092915050565b600081905092915050565b60006147ca8261481b565b9050919050565b60006147dc8261481b565b9050919050565b60008115159050919050565b60007fffffffff0000000000000000000000000000000000000000000000000000000082169050919050565b600073ffffffffffffffffffffffffffffffffffffffff82169050919050565b6000819050919050565b82818337600083830152505050565b60005b83811015614872578082015181840152602081019050614857565b83811115614881576000848401525b50505050565b6000601f19601f8301169050919050565b6148a1816147bf565b81146148ac57600080fd5b50565b6148b8816147e3565b81146148c357600080fd5b50565b6148cf816147ef565b81146148da57600080fd5b50565b6148e68161483b565b81146148f157600080fd5b5056fe4552433732313a207472616e7366657220746f206e6f6e20455243373231526563656976657220696d706c656d656e7465724552433732313a206f776e657220717565727920666f72206e6f6e6578697374656e7420746f6b656ea2646970667358221220b9d7f7c4fecdaf8caa69e801f38f28eaafe8cdd7ced05e85b0192544e3fdf4a864736f6c634300060c0033",
  "immutableReferences": {},
  "source": "// SPDX-License-Identifier: MIT\r\npragma solidity >=0.4.25 <0.7.0;\r\npragma experimental ABIEncoderV2;\r\n\r\nimport \"@openzeppelin/contracts/token/ERC721/ERC721.sol\";\r\nimport \"@openzeppelin/contracts/access/Ownable.sol\";\r\nimport \"@openzeppelin/contracts/math/math.sol\";\r\n\r\ncontract Cajon is ERC721, Ownable {\r\n\r\n    struct UnidadCajon {\r\n        uint256 id;\r\n        string tipoContenido;\r\n        bool exists;\r\n        puntoCadena[] trayecto;\r\n    }\r\n\r\n    struct puntoCadena{\r\n        address addressLector;\r\n        uint256 fecha;\r\n        string nombreComercial;\r\n    }\r\n\r\n    mapping(address => bool) whitelistProductores;\r\n    mapping(address => bool) whitelistPuntosVenta;\r\n    mapping(address => bool) whitelistDistribuidores;\r\n    mapping(uint256 => UnidadCajon) items;\r\n\r\n    constructor() ERC721(\"My ERC721 Token\", \"MET1\")  public {\r\n        \r\n    }\r\n\r\n    modifier isInWhitelistProductores(){\r\n        require(whitelistProductores[msg.sender]==true, \"is not in the whitelistProductores\");\r\n        _;\r\n    }\r\n\r\n    modifier isInWhitelistPuntosVenta(){\r\n        require(whitelistPuntosVenta[msg.sender]==true, \"is not in the whitelistPuntosVenta\");\r\n        _;\r\n    }\r\n\r\n    modifier isInWhitelistDistribuidores(){\r\n        require(whitelistDistribuidores[msg.sender]==true, \"is not in the whitelistDistribuidores\");\r\n        _;\r\n    }\r\n\r\n    function crearCajon(address addressProductor, uint256 tokenId, string memory tipoContenido, string memory nombreComercialProductor) isInWhitelistProductores public {\r\n        _mint(addressProductor, tokenId);\r\n        items[tokenId].id = tokenId;\r\n        items[tokenId].tipoContenido = tipoContenido;\r\n        items[tokenId].exists = true;\r\n        agregarPuntoCadena(tokenId,addressProductor,nombreComercialProductor);\r\n    }\r\n\r\n    function obtenerCajon(uint256 tokenId) public view returns(uint256, string memory, puntoCadena[] memory) {\r\n        require(items[tokenId].exists, \"the token doesn't exists\");\r\n        return (items[tokenId].id, items[tokenId].tipoContenido,items[tokenId].trayecto);\r\n    }\r\n\r\n    function destruirCajon(uint256 tokenId) isInWhitelistPuntosVenta public {\r\n        require(ownerOf(tokenId) == msg.sender, \"is not the owner\");\r\n        _burn(tokenId);\r\n        items[tokenId].id = 0;\r\n        items[tokenId].tipoContenido = '';\r\n        delete items[tokenId].trayecto;\r\n        items[tokenId].exists = false;\r\n    }\r\n\r\n    function agregarPuntoCadena(uint256 tokenId, address addressLector, string memory nombreComercial) isInWhitelistDistribuidores isInWhitelistPuntosVenta public {\r\n        uint256 fecha = now;\r\n        puntoCadena memory nuevoPuntoCadena = puntoCadena({addressLector: addressLector, fecha: fecha, nombreComercial: nombreComercial});\r\n        items[tokenId].trayecto.push(nuevoPuntoCadena);\r\n    }\r\n\r\n    function addToWhitelistProductores(address account) onlyOwner public{\r\n        whitelistProductores[account] = true;\r\n    }\r\n\r\n    function addToWhitelistPuntosVenta(address account) onlyOwner public{\r\n        whitelistPuntosVenta[account] = true;\r\n    }\r\n    \r\n    function addToWhitelistDistribuidores(address account) onlyOwner public{\r\n        whitelistDistribuidores[account] = true;\r\n    }\r\n\r\n     function removeFromWhitelistProductores(address account) onlyOwner public{\r\n        whitelistProductores[account] = false;\r\n    }\r\n\r\n    function removeFromWhitelistPuntosVenta(address account) onlyOwner public{\r\n        whitelistPuntosVenta[account] = false;\r\n    }\r\n\r\n    function removeFromWhitelistDistribuidores(address account) onlyOwner public{\r\n        whitelistDistribuidores[account] = false;\r\n    }\r\n    \r\n}\r\n",
  "sourcePath": "C:/Users/Lenovo/Documents/UM/Blockchain/blockchain_food_tracking/contracts/Cajon.sol",
  "compiler": {
    "name": "solc",
    "version": "0.6.12+commit.27d51765.Emscripten.clang"
  },
  "schemaVersion": "3.3.1",
  "updatedAt": "2020-11-16T14:33:48.297Z",
  "networkType": "ethereum",
  "devdoc": {
    "kind": "dev",
    "methods": {
      "approve(address,uint256)": {
        "details": "See {IERC721-approve}."
      },
      "balanceOf(address)": {
        "details": "See {IERC721-balanceOf}."
      },
      "baseURI()": {
        "details": "Returns the base URI set via {_setBaseURI}. This will be automatically added as a prefix in {tokenURI} to each token's URI, or to the token ID if no specific URI is set for that token ID."
      },
      "getApproved(uint256)": {
        "details": "See {IERC721-getApproved}."
      },
      "isApprovedForAll(address,address)": {
        "details": "See {IERC721-isApprovedForAll}."
      },
      "name()": {
        "details": "See {IERC721Metadata-name}."
      },
      "owner()": {
        "details": "Returns the address of the current owner."
      },
      "ownerOf(uint256)": {
        "details": "See {IERC721-ownerOf}."
      },
      "renounceOwnership()": {
        "details": "Leaves the contract without owner. It will not be possible to call `onlyOwner` functions anymore. Can only be called by the current owner. NOTE: Renouncing ownership will leave the contract without an owner, thereby removing any functionality that is only available to the owner."
      },
      "safeTransferFrom(address,address,uint256)": {
        "details": "See {IERC721-safeTransferFrom}."
      },
      "safeTransferFrom(address,address,uint256,bytes)": {
        "details": "See {IERC721-safeTransferFrom}."
      },
      "setApprovalForAll(address,bool)": {
        "details": "See {IERC721-setApprovalForAll}."
      },
      "supportsInterface(bytes4)": {
        "details": "See {IERC165-supportsInterface}. Time complexity O(1), guaranteed to always use less than 30 000 gas."
      },
      "symbol()": {
        "details": "See {IERC721Metadata-symbol}."
      },
      "tokenByIndex(uint256)": {
        "details": "See {IERC721Enumerable-tokenByIndex}."
      },
      "tokenOfOwnerByIndex(address,uint256)": {
        "details": "See {IERC721Enumerable-tokenOfOwnerByIndex}."
      },
      "tokenURI(uint256)": {
        "details": "See {IERC721Metadata-tokenURI}."
      },
      "totalSupply()": {
        "details": "See {IERC721Enumerable-totalSupply}."
      },
      "transferFrom(address,address,uint256)": {
        "details": "See {IERC721-transferFrom}."
      },
      "transferOwnership(address)": {
        "details": "Transfers ownership of the contract to a new account (`newOwner`). Can only be called by the current owner."
      }
    },
    "version": 1
  },
  "userdoc": {
    "kind": "user",
    "methods": {},
    "version": 1
  }
}