{
  "contractName": "Cajon",
  "abi": [
    {
      "inputs": [],
      "stateMutability": "nonpayable",
      "type": "constructor"
    },
    {
      "anonymous": false,
      "inputs": [
        {
          "indexed": true,
          "internalType": "address",
          "name": "owner",
          "type": "address"
        },
        {
          "indexed": true,
          "internalType": "address",
          "name": "approved",
          "type": "address"
        },
        {
          "indexed": true,
          "internalType": "uint256",
          "name": "tokenId",
          "type": "uint256"
        }
      ],
      "name": "Approval",
      "type": "event"
    },
    {
      "anonymous": false,
      "inputs": [
        {
          "indexed": true,
          "internalType": "address",
          "name": "owner",
          "type": "address"
        },
        {
          "indexed": true,
          "internalType": "address",
          "name": "operator",
          "type": "address"
        },
        {
          "indexed": false,
          "internalType": "bool",
          "name": "approved",
          "type": "bool"
        }
      ],
      "name": "ApprovalForAll",
      "type": "event"
    },
    {
      "anonymous": false,
      "inputs": [
        {
          "indexed": true,
          "internalType": "address",
          "name": "previousOwner",
          "type": "address"
        },
        {
          "indexed": true,
          "internalType": "address",
          "name": "newOwner",
          "type": "address"
        }
      ],
      "name": "OwnershipTransferred",
      "type": "event"
    },
    {
      "anonymous": false,
      "inputs": [
        {
          "indexed": true,
          "internalType": "address",
          "name": "from",
          "type": "address"
        },
        {
          "indexed": true,
          "internalType": "address",
          "name": "to",
          "type": "address"
        },
        {
          "indexed": true,
          "internalType": "uint256",
          "name": "tokenId",
          "type": "uint256"
        }
      ],
      "name": "Transfer",
      "type": "event"
    },
    {
      "inputs": [
        {
          "internalType": "address",
          "name": "to",
          "type": "address"
        },
        {
          "internalType": "uint256",
          "name": "tokenId",
          "type": "uint256"
        }
      ],
      "name": "approve",
      "outputs": [],
      "stateMutability": "nonpayable",
      "type": "function"
    },
    {
      "inputs": [
        {
          "internalType": "address",
          "name": "owner",
          "type": "address"
        }
      ],
      "name": "balanceOf",
      "outputs": [
        {
          "internalType": "uint256",
          "name": "",
          "type": "uint256"
        }
      ],
      "stateMutability": "view",
      "type": "function",
      "constant": true
    },
    {
      "inputs": [],
      "name": "baseURI",
      "outputs": [
        {
          "internalType": "string",
          "name": "",
          "type": "string"
        }
      ],
      "stateMutability": "view",
      "type": "function",
      "constant": true
    },
    {
      "inputs": [
        {
          "internalType": "uint256",
          "name": "tokenId",
          "type": "uint256"
        }
      ],
      "name": "getApproved",
      "outputs": [
        {
          "internalType": "address",
          "name": "",
          "type": "address"
        }
      ],
      "stateMutability": "view",
      "type": "function",
      "constant": true
    },
    {
      "inputs": [
        {
          "internalType": "address",
          "name": "owner",
          "type": "address"
        },
        {
          "internalType": "address",
          "name": "operator",
          "type": "address"
        }
      ],
      "name": "isApprovedForAll",
      "outputs": [
        {
          "internalType": "bool",
          "name": "",
          "type": "bool"
        }
      ],
      "stateMutability": "view",
      "type": "function",
      "constant": true
    },
    {
      "inputs": [],
      "name": "name",
      "outputs": [
        {
          "internalType": "string",
          "name": "",
          "type": "string"
        }
      ],
      "stateMutability": "view",
      "type": "function",
      "constant": true
    },
    {
      "inputs": [],
      "name": "owner",
      "outputs": [
        {
          "internalType": "address",
          "name": "",
          "type": "address"
        }
      ],
      "stateMutability": "view",
      "type": "function",
      "constant": true
    },
    {
      "inputs": [
        {
          "internalType": "uint256",
          "name": "tokenId",
          "type": "uint256"
        }
      ],
      "name": "ownerOf",
      "outputs": [
        {
          "internalType": "address",
          "name": "",
          "type": "address"
        }
      ],
      "stateMutability": "view",
      "type": "function",
      "constant": true
    },
    {
      "inputs": [],
      "name": "renounceOwnership",
      "outputs": [],
      "stateMutability": "nonpayable",
      "type": "function"
    },
    {
      "inputs": [
        {
          "internalType": "address",
          "name": "from",
          "type": "address"
        },
        {
          "internalType": "address",
          "name": "to",
          "type": "address"
        },
        {
          "internalType": "uint256",
          "name": "tokenId",
          "type": "uint256"
        }
      ],
      "name": "safeTransferFrom",
      "outputs": [],
      "stateMutability": "nonpayable",
      "type": "function"
    },
    {
      "inputs": [
        {
          "internalType": "address",
          "name": "from",
          "type": "address"
        },
        {
          "internalType": "address",
          "name": "to",
          "type": "address"
        },
        {
          "internalType": "uint256",
          "name": "tokenId",
          "type": "uint256"
        },
        {
          "internalType": "bytes",
          "name": "_data",
          "type": "bytes"
        }
      ],
      "name": "safeTransferFrom",
      "outputs": [],
      "stateMutability": "nonpayable",
      "type": "function"
    },
    {
      "inputs": [
        {
          "internalType": "address",
          "name": "operator",
          "type": "address"
        },
        {
          "internalType": "bool",
          "name": "approved",
          "type": "bool"
        }
      ],
      "name": "setApprovalForAll",
      "outputs": [],
      "stateMutability": "nonpayable",
      "type": "function"
    },
    {
      "inputs": [
        {
          "internalType": "bytes4",
          "name": "interfaceId",
          "type": "bytes4"
        }
      ],
      "name": "supportsInterface",
      "outputs": [
        {
          "internalType": "bool",
          "name": "",
          "type": "bool"
        }
      ],
      "stateMutability": "view",
      "type": "function",
      "constant": true
    },
    {
      "inputs": [],
      "name": "symbol",
      "outputs": [
        {
          "internalType": "string",
          "name": "",
          "type": "string"
        }
      ],
      "stateMutability": "view",
      "type": "function",
      "constant": true
    },
    {
      "inputs": [
        {
          "internalType": "uint256",
          "name": "index",
          "type": "uint256"
        }
      ],
      "name": "tokenByIndex",
      "outputs": [
        {
          "internalType": "uint256",
          "name": "",
          "type": "uint256"
        }
      ],
      "stateMutability": "view",
      "type": "function",
      "constant": true
    },
    {
      "inputs": [
        {
          "internalType": "address",
          "name": "owner",
          "type": "address"
        },
        {
          "internalType": "uint256",
          "name": "index",
          "type": "uint256"
        }
      ],
      "name": "tokenOfOwnerByIndex",
      "outputs": [
        {
          "internalType": "uint256",
          "name": "",
          "type": "uint256"
        }
      ],
      "stateMutability": "view",
      "type": "function",
      "constant": true
    },
    {
      "inputs": [
        {
          "internalType": "uint256",
          "name": "tokenId",
          "type": "uint256"
        }
      ],
      "name": "tokenURI",
      "outputs": [
        {
          "internalType": "string",
          "name": "",
          "type": "string"
        }
      ],
      "stateMutability": "view",
      "type": "function",
      "constant": true
    },
    {
      "inputs": [],
      "name": "totalSupply",
      "outputs": [
        {
          "internalType": "uint256",
          "name": "",
          "type": "uint256"
        }
      ],
      "stateMutability": "view",
      "type": "function",
      "constant": true
    },
    {
      "inputs": [
        {
          "internalType": "address",
          "name": "from",
          "type": "address"
        },
        {
          "internalType": "address",
          "name": "to",
          "type": "address"
        },
        {
          "internalType": "uint256",
          "name": "tokenId",
          "type": "uint256"
        }
      ],
      "name": "transferFrom",
      "outputs": [],
      "stateMutability": "nonpayable",
      "type": "function"
    },
    {
      "inputs": [
        {
          "internalType": "address",
          "name": "newOwner",
          "type": "address"
        }
      ],
      "name": "transferOwnership",
      "outputs": [],
      "stateMutability": "nonpayable",
      "type": "function"
    },
    {
      "inputs": [
        {
          "internalType": "address",
          "name": "addressProductor",
          "type": "address"
        },
        {
          "internalType": "uint256",
          "name": "tokenId",
          "type": "uint256"
        },
        {
          "internalType": "string",
          "name": "tipoContenido",
          "type": "string"
        },
        {
          "internalType": "string",
          "name": "nombreComercialProductor",
          "type": "string"
        },
        {
          "internalType": "uint256",
          "name": "fecha",
          "type": "uint256"
        }
      ],
      "name": "crearCajon",
      "outputs": [],
      "stateMutability": "nonpayable",
      "type": "function"
    },
    {
      "inputs": [
        {
          "internalType": "uint256",
          "name": "tokenId",
          "type": "uint256"
        }
      ],
      "name": "obtenerCajon",
      "outputs": [
        {
          "internalType": "uint256",
          "name": "",
          "type": "uint256"
        },
        {
          "internalType": "string",
          "name": "",
          "type": "string"
        },
        {
          "internalType": "address[]",
          "name": "",
          "type": "address[]"
        },
        {
          "internalType": "uint256[]",
          "name": "",
          "type": "uint256[]"
        },
        {
          "internalType": "string[]",
          "name": "",
          "type": "string[]"
        }
      ],
      "stateMutability": "view",
      "type": "function",
      "constant": true
    },
    {
      "inputs": [
        {
          "internalType": "uint256",
          "name": "tokenId",
          "type": "uint256"
        }
      ],
      "name": "destruirCajon",
      "outputs": [],
      "stateMutability": "nonpayable",
      "type": "function"
    },
    {
      "inputs": [
        {
          "internalType": "uint256",
          "name": "tokenId",
          "type": "uint256"
        },
        {
          "internalType": "address",
          "name": "addressLector",
          "type": "address"
        },
        {
          "internalType": "string",
          "name": "nombreComercial",
          "type": "string"
        },
        {
          "internalType": "uint256",
          "name": "fecha",
          "type": "uint256"
        }
      ],
      "name": "agregarPuntoCadena",
      "outputs": [],
      "stateMutability": "nonpayable",
      "type": "function"
    },
    {
      "inputs": [
        {
          "internalType": "address",
          "name": "account",
          "type": "address"
        }
      ],
      "name": "addToWhitelistProductores",
      "outputs": [],
      "stateMutability": "nonpayable",
      "type": "function"
    },
    {
      "inputs": [
        {
          "internalType": "address",
          "name": "account",
          "type": "address"
        }
      ],
      "name": "addToWhitelistPuntosVenta",
      "outputs": [],
      "stateMutability": "nonpayable",
      "type": "function"
    },
    {
      "inputs": [
        {
          "internalType": "address",
          "name": "account",
          "type": "address"
        }
      ],
      "name": "addToWhitelistDistribuidores",
      "outputs": [],
      "stateMutability": "nonpayable",
      "type": "function"
    },
    {
      "inputs": [
        {
          "internalType": "address",
          "name": "account",
          "type": "address"
        }
      ],
      "name": "removeFromWhitelistProductores",
      "outputs": [],
      "stateMutability": "nonpayable",
      "type": "function"
    },
    {
      "inputs": [
        {
          "internalType": "address",
          "name": "account",
          "type": "address"
        }
      ],
      "name": "removeFromWhitelistPuntosVenta",
      "outputs": [],
      "stateMutability": "nonpayable",
      "type": "function"
    },
    {
      "inputs": [
        {
          "internalType": "address",
          "name": "account",
          "type": "address"
        }
      ],
      "name": "removeFromWhitelistDistribuidores",
      "outputs": [],
      "stateMutability": "nonpayable",
      "type": "function"
    }
  ],
  "bytecode": "0x608060405273aecdb05adc1211ed022d2a5a648d9a4fd45f40f0600b60006101000a81548173ffffffffffffffffffffffffffffffffffffffff021916908373ffffffffffffffffffffffffffffffffffffffff1602179055503480156200006657600080fd5b506040518060400160405280600f81526020017f4d792045524337323120546f6b656e00000000000000000000000000000000008152506040518060400160405280600481526020017f4d45543100000000000000000000000000000000000000000000000000000000815250620000eb6301ffc9a760e01b6200021e60201b60201c565b816006908051906020019062000103929190620002fe565b5080600790805190602001906200011c929190620002fe565b50620001356380ac58cd60e01b6200021e60201b60201c565b6200014d635b5e139f60e01b6200021e60201b60201c565b6200016563780e9d6360e01b6200021e60201b60201c565b5050600062000179620002f660201b60201c565b905080600a60006101000a81548173ffffffffffffffffffffffffffffffffffffffff021916908373ffffffffffffffffffffffffffffffffffffffff1602179055508073ffffffffffffffffffffffffffffffffffffffff16600073ffffffffffffffffffffffffffffffffffffffff167f8be0079c531659141344cd1fd0a4f28419497f9722a3daafe3b4186f6b6457e060405160405180910390a35062000419565b63ffffffff60e01b817bffffffffffffffffffffffffffffffffffffffffffffffffffffffff191614156200028a576040517f08c379a00000000000000000000000000000000000000000000000000000000081526004016200028190620003e6565b60405180910390fd5b6001600080837bffffffffffffffffffffffffffffffffffffffffffffffffffffffff19167bffffffffffffffffffffffffffffffffffffffffffffffffffffffff1916815260200190815260200160002060006101000a81548160ff02191690831515021790555050565b600033905090565b828054600181600116156101000203166002900490600052602060002090601f016020900481019282601f106200034157805160ff191683800117855562000372565b8280016001018555821562000372579182015b828111156200037157825182559160200191906001019062000354565b5b50905062000381919062000385565b5090565b5b80821115620003a057600081600090555060010162000386565b5090565b6000620003b3601c8362000408565b91507f4552433136353a20696e76616c696420696e74657266616365206964000000006000830152602082019050919050565b600060208201905081810360008301526200040181620003a4565b9050919050565b600082825260208201905092915050565b614cd480620004296000396000f3fe608060405234801561001057600080fd5b50600436106101da5760003560e01c806373841b3511610104578063c87b56dd116100a2578063e985e9c511610071578063e985e9c514610553578063f2fde38b14610583578063f7375df91461059f578063fd7f0349146105bb576101da565b8063c87b56dd146104cf578063cbfbbef7146104ff578063ce159b851461051b578063d361fbe614610537576101da565b806395d89b41116100de57806395d89b411461045d57806396cb8c741461047b578063a22cb46514610497578063b88d4fde146104b3576101da565b806373841b35146103ef5780637ac0df591461040b5780638da5cb5b1461043f576101da565b80633798baff1161017c5780636352211e1161014b5780636352211e146103675780636c0360eb1461039757806370a08231146103b5578063715018a6146103e5576101da565b80633798baff146102e357806342842e0e146102ff578063473ade3f1461031b5780634f6ccce714610337576101da565b8063095ea7b3116101b8578063095ea7b31461025d57806318160ddd1461027957806323b872dd146102975780632f745c59146102b3576101da565b806301ffc9a7146101df57806306fdde031461020f578063081812fc1461022d575b600080fd5b6101f960048036038101906101f4919061381b565b6105d7565b60405161020691906145a3565b60405180910390f35b61021761063e565b60405161022491906145be565b60405180910390f35b6102476004803603810190610242919061386d565b6106e0565b604051610254919061453c565b60405180910390f35b61027760048036038101906102729190613738565b610765565b005b61028161087d565b60405161028e91906148e0565b60405180910390f35b6102b160048036038101906102ac9190613632565b61088e565b005b6102cd60048036038101906102c89190613738565b6108ee565b6040516102da91906148e0565b60405180910390f35b6102fd60048036038101906102f891906135cd565b610949565b005b61031960048036038101906103149190613632565b610a34565b005b610335600480360381019061033091906135cd565b610a54565b005b610351600480360381019061034c919061386d565b610b3f565b60405161035e91906148e0565b60405180910390f35b610381600480360381019061037c919061386d565b610b62565b60405161038e919061453c565b60405180910390f35b61039f610b99565b6040516103ac91906145be565b60405180910390f35b6103cf60048036038101906103ca91906135cd565b610c3b565b6040516103dc91906148e0565b60405180910390f35b6103ed610cfa565b005b610409600480360381019061040491906135cd565b610e52565b005b6104256004803603810190610420919061386d565b610f3d565b6040516104369594939291906148fb565b60405180910390f35b61044761135d565b604051610454919061453c565b60405180910390f35b610465611387565b60405161047291906145be565b60405180910390f35b6104956004803603810190610490919061386d565b611429565b005b6104b160048036038101906104ac91906136fc565b6115e5565b005b6104cd60048036038101906104c89190613681565b611766565b005b6104e960048036038101906104e4919061386d565b6117c8565b6040516104f691906145be565b60405180910390f35b610519600480360381019061051491906135cd565b611953565b005b61053560048036038101906105309190613774565b611a3e565b005b610551600480360381019061054c91906135cd565b611b63565b005b61056d600480360381019061056891906135f6565b611c4e565b60405161057a91906145a3565b60405180910390f35b61059d600480360381019061059891906135cd565b611ce2565b005b6105b960048036038101906105b49190613896565b611ea9565b005b6105d560048036038101906105d091906135cd565b6120e4565b005b6000806000837bffffffffffffffffffffffffffffffffffffffffffffffffffffffff19167bffffffffffffffffffffffffffffffffffffffffffffffffffffffff1916815260200190815260200160002060009054906101000a900460ff169050919050565b606060068054600181600116156101000203166002900480601f0160208091040260200160405190810160405280929190818152602001828054600181600116156101000203166002900480156106d65780601f106106ab576101008083540402835291602001916106d6565b820191906000526020600020905b8154815290600101906020018083116106b957829003601f168201915b5050505050905090565b60006106eb826121cf565b61072a576040517f08c379a0000000000000000000000000000000000000000000000000000000008152600401610721906147a0565b60405180910390fd5b6004600083815260200190815260200160002060009054906101000a900473ffffffffffffffffffffffffffffffffffffffff169050919050565b600061077082610b62565b90508073ffffffffffffffffffffffffffffffffffffffff168373ffffffffffffffffffffffffffffffffffffffff1614156107e1576040517f08c379a00000000000000000000000000000000000000000000000000000000081526004016107d890614840565b60405180910390fd5b8073ffffffffffffffffffffffffffffffffffffffff166108006121ec565b73ffffffffffffffffffffffffffffffffffffffff16148061082f575061082e816108296121ec565b611c4e565b5b61086e576040517f08c379a000000000000000000000000000000000000000000000000000000000815260040161086590614700565b60405180910390fd5b61087883836121f4565b505050565b600061088960026122ad565b905090565b61089f6108996121ec565b826122c2565b6108de576040517f08c379a00000000000000000000000000000000000000000000000000000000081526004016108d590614860565b60405180910390fd5b6108e98383836123a0565b505050565b600061094182600160008673ffffffffffffffffffffffffffffffffffffffff1673ffffffffffffffffffffffffffffffffffffffff1681526020019081526020016000206125b790919063ffffffff16565b905092915050565b600b60009054906101000a900473ffffffffffffffffffffffffffffffffffffffff1673ffffffffffffffffffffffffffffffffffffffff163373ffffffffffffffffffffffffffffffffffffffff16146109d9576040517f08c379a00000000000000000000000000000000000000000000000000000000081526004016109d090614600565b60405180910390fd5b6000600c60008373ffffffffffffffffffffffffffffffffffffffff1673ffffffffffffffffffffffffffffffffffffffff16815260200190815260200160002060006101000a81548160ff02191690831515021790555050565b610a4f83838360405180602001604052806000815250611766565b505050565b600b60009054906101000a900473ffffffffffffffffffffffffffffffffffffffff1673ffffffffffffffffffffffffffffffffffffffff163373ffffffffffffffffffffffffffffffffffffffff1614610ae4576040517f08c379a0000000000000000000000000000000000000000000000000000000008152600401610adb90614600565b60405180910390fd5b6001600e60008373ffffffffffffffffffffffffffffffffffffffff1673ffffffffffffffffffffffffffffffffffffffff16815260200190815260200160002060006101000a81548160ff02191690831515021790555050565b600080610b568360026125d190919063ffffffff16565b50905080915050919050565b6000610b9282604051806060016040528060298152602001614c766029913960026125fd9092919063ffffffff16565b9050919050565b606060098054600181600116156101000203166002900480601f016020809104026020016040519081016040528092919081815260200182805460018160011615610100020316600290048015610c315780601f10610c0657610100808354040283529160200191610c31565b820191906000526020600020905b815481529060010190602001808311610c1457829003601f168201915b5050505050905090565b60008073ffffffffffffffffffffffffffffffffffffffff168273ffffffffffffffffffffffffffffffffffffffff161415610cac576040517f08c379a0000000000000000000000000000000000000000000000000000000008152600401610ca390614720565b60405180910390fd5b610cf3600160008473ffffffffffffffffffffffffffffffffffffffff1673ffffffffffffffffffffffffffffffffffffffff16815260200190815260200160002061261c565b9050919050565b610d026121ec565b73ffffffffffffffffffffffffffffffffffffffff16600a60009054906101000a900473ffffffffffffffffffffffffffffffffffffffff1673ffffffffffffffffffffffffffffffffffffffff1614610d91576040517f08c379a0000000000000000000000000000000000000000000000000000000008152600401610d88906147c0565b60405180910390fd5b600073ffffffffffffffffffffffffffffffffffffffff16600a60009054906101000a900473ffffffffffffffffffffffffffffffffffffffff1673ffffffffffffffffffffffffffffffffffffffff167f8be0079c531659141344cd1fd0a4f28419497f9722a3daafe3b4186f6b6457e060405160405180910390a36000600a60006101000a81548173ffffffffffffffffffffffffffffffffffffffff021916908373ffffffffffffffffffffffffffffffffffffffff160217905550565b600b60009054906101000a900473ffffffffffffffffffffffffffffffffffffffff1673ffffffffffffffffffffffffffffffffffffffff163373ffffffffffffffffffffffffffffffffffffffff1614610ee2576040517f08c379a0000000000000000000000000000000000000000000000000000000008152600401610ed990614600565b60405180910390fd5b6000600d60008373ffffffffffffffffffffffffffffffffffffffff1673ffffffffffffffffffffffffffffffffffffffff16815260200190815260200160002060006101000a81548160ff02191690831515021790555050565b6000606080606080600f600087815260200190815260200160002060020160009054906101000a900460ff16610fa8576040517f08c379a0000000000000000000000000000000000000000000000000000000008152600401610f9f90614820565b60405180910390fd5b6060600f60008881526020019081526020016000206003018054905067ffffffffffffffff81118015610fda57600080fd5b506040519080825280602002602001820160405280156110095781602001602082028036833780820191505090505b5090506060600f60008981526020019081526020016000206003018054905067ffffffffffffffff8111801561103e57600080fd5b5060405190808252806020026020018201604052801561106d5781602001602082028036833780820191505090505b5090506060600f60008a81526020019081526020016000206003018054905067ffffffffffffffff811180156110a257600080fd5b506040519080825280602002602001820160405280156110d657816020015b60608152602001906001900390816110c15790505b50905060005b600f60008b81526020019081526020016000206003018054905081101561127a576000600f60008c8152602001908152602001600020600301828154811061112057fe5b906000526020600020906003020190508060000160009054906101000a900473ffffffffffffffffffffffffffffffffffffffff1685838151811061116157fe5b602002602001019073ffffffffffffffffffffffffffffffffffffffff16908173ffffffffffffffffffffffffffffffffffffffff168152505080600101548483815181106111ac57fe5b602002602001018181525050806002018054600181600116156101000203166002900480601f0160208091040260200160405190810160405280929190818152602001828054600181600116156101000203166002900480156112505780601f1061122557610100808354040283529160200191611250565b820191906000526020600020905b81548152906001019060200180831161123357829003601f168201915b505050505083838151811061126157fe5b60200260200101819052505080806001019150506110dc565b50600f60008a815260200190815260200160002060000154600f60008b8152602001908152602001600020600101848484838054600181600116156101000203166002900480601f0160208091040260200160405190810160405280929190818152602001828054600181600116156101000203166002900480156113405780601f1061131557610100808354040283529160200191611340565b820191906000526020600020905b81548152906001019060200180831161132357829003601f168201915b505050505093509750975097509750975050505091939590929450565b6000600a60009054906101000a900473ffffffffffffffffffffffffffffffffffffffff16905090565b606060078054600181600116156101000203166002900480601f01602080910402602001604051908101604052809291908181526020018280546001816001161561010002031660029004801561141f5780601f106113f45761010080835404028352916020019161141f565b820191906000526020600020905b81548152906001019060200180831161140257829003601f168201915b5050505050905090565b60011515600d60003373ffffffffffffffffffffffffffffffffffffffff1673ffffffffffffffffffffffffffffffffffffffff16815260200190815260200160002060009054906101000a900460ff161515146114bc576040517f08c379a00000000000000000000000000000000000000000000000000000000081526004016114b3906146c0565b60405180910390fd5b3373ffffffffffffffffffffffffffffffffffffffff166114dc82610b62565b73ffffffffffffffffffffffffffffffffffffffff1614611532576040517f08c379a0000000000000000000000000000000000000000000000000000000008152600401611529906148a0565b60405180910390fd5b61153b81612631565b6000600f60008381526020019081526020016000206000018190555060405180602001604052806000815250600f60008381526020019081526020016000206001019080519060200190611590929190613326565b50600f600082815260200190815260200160002060030160006115b391906133a6565b6000600f600083815260200190815260200160002060020160006101000a81548160ff02191690831515021790555050565b6115ed6121ec565b73ffffffffffffffffffffffffffffffffffffffff168273ffffffffffffffffffffffffffffffffffffffff16141561165b576040517f08c379a0000000000000000000000000000000000000000000000000000000008152600401611652906146a0565b60405180910390fd5b80600560006116686121ec565b73ffffffffffffffffffffffffffffffffffffffff1673ffffffffffffffffffffffffffffffffffffffff16815260200190815260200160002060008473ffffffffffffffffffffffffffffffffffffffff1673ffffffffffffffffffffffffffffffffffffffff16815260200190815260200160002060006101000a81548160ff0219169083151502179055508173ffffffffffffffffffffffffffffffffffffffff166117156121ec565b73ffffffffffffffffffffffffffffffffffffffff167f17307eab39ab6107e8899845ad3d59bd9653f200f220920489ca2b5937696c318360405161175a91906145a3565b60405180910390a35050565b6117776117716121ec565b836122c2565b6117b6576040517f08c379a00000000000000000000000000000000000000000000000000000000081526004016117ad90614860565b60405180910390fd5b6117c28484848461276b565b50505050565b60606117d3826121cf565b611812576040517f08c379a000000000000000000000000000000000000000000000000000000000815260040161180990614800565b60405180910390fd5b6060600860008481526020019081526020016000208054600181600116156101000203166002900480601f0160208091040260200160405190810160405280929190818152602001828054600181600116156101000203166002900480156118bb5780601f10611890576101008083540402835291602001916118bb565b820191906000526020600020905b81548152906001019060200180831161189e57829003601f168201915b505050505090506000600980546001816001161561010002031660029004905014156118ea578091505061194e565b60008151111561191f57600981604051602001611908929190614518565b60405160208183030381529060405291505061194e565b600961192a846127c7565b60405160200161193b929190614518565b6040516020818303038152906040529150505b919050565b600b60009054906101000a900473ffffffffffffffffffffffffffffffffffffffff1673ffffffffffffffffffffffffffffffffffffffff163373ffffffffffffffffffffffffffffffffffffffff16146119e3576040517f08c379a00000000000000000000000000000000000000000000000000000000081526004016119da90614600565b60405180910390fd5b6000600e60008373ffffffffffffffffffffffffffffffffffffffff1673ffffffffffffffffffffffffffffffffffffffff16815260200190815260200160002060006101000a81548160ff02191690831515021790555050565b60011515600c60003373ffffffffffffffffffffffffffffffffffffffff1673ffffffffffffffffffffffffffffffffffffffff16815260200190815260200160002060009054906101000a900460ff16151514611ad1576040517f08c379a0000000000000000000000000000000000000000000000000000000008152600401611ac890614740565b60405180910390fd5b611adb858561290e565b83600f60008681526020019081526020016000206000018190555082600f60008681526020019081526020016000206001019080519060200190611b20929190613326565b506001600f600086815260200190815260200160002060020160006101000a81548160ff021916908315150217905550611b5c84868484611ea9565b5050505050565b600b60009054906101000a900473ffffffffffffffffffffffffffffffffffffffff1673ffffffffffffffffffffffffffffffffffffffff163373ffffffffffffffffffffffffffffffffffffffff1614611bf3576040517f08c379a0000000000000000000000000000000000000000000000000000000008152600401611bea90614600565b60405180910390fd5b6001600c60008373ffffffffffffffffffffffffffffffffffffffff1673ffffffffffffffffffffffffffffffffffffffff16815260200190815260200160002060006101000a81548160ff02191690831515021790555050565b6000600560008473ffffffffffffffffffffffffffffffffffffffff1673ffffffffffffffffffffffffffffffffffffffff16815260200190815260200160002060008373ffffffffffffffffffffffffffffffffffffffff1673ffffffffffffffffffffffffffffffffffffffff16815260200190815260200160002060009054906101000a900460ff16905092915050565b611cea6121ec565b73ffffffffffffffffffffffffffffffffffffffff16600a60009054906101000a900473ffffffffffffffffffffffffffffffffffffffff1673ffffffffffffffffffffffffffffffffffffffff1614611d79576040517f08c379a0000000000000000000000000000000000000000000000000000000008152600401611d70906147c0565b60405180910390fd5b600073ffffffffffffffffffffffffffffffffffffffff168173ffffffffffffffffffffffffffffffffffffffff161415611de9576040517f08c379a0000000000000000000000000000000000000000000000000000000008152600401611de090614640565b60405180910390fd5b8073ffffffffffffffffffffffffffffffffffffffff16600a60009054906101000a900473ffffffffffffffffffffffffffffffffffffffff1673ffffffffffffffffffffffffffffffffffffffff167f8be0079c531659141344cd1fd0a4f28419497f9722a3daafe3b4186f6b6457e060405160405180910390a380600a60006101000a81548173ffffffffffffffffffffffffffffffffffffffff021916908373ffffffffffffffffffffffffffffffffffffffff16021790555050565b60011515600e60003373ffffffffffffffffffffffffffffffffffffffff1673ffffffffffffffffffffffffffffffffffffffff16815260200190815260200160002060009054906101000a900460ff1615151480611f58575060011515600d60003373ffffffffffffffffffffffffffffffffffffffff1673ffffffffffffffffffffffffffffffffffffffff16815260200190815260200160002060009054906101000a900460ff161515145b80611fb3575060011515600c60003373ffffffffffffffffffffffffffffffffffffffff1673ffffffffffffffffffffffffffffffffffffffff16815260200190815260200160002060009054906101000a900460ff161515145b611ff2576040517f08c379a0000000000000000000000000000000000000000000000000000000008152600401611fe9906148c0565b60405180910390fd5b611ffa6133ca565b60405180606001604052808573ffffffffffffffffffffffffffffffffffffffff168152602001838152602001848152509050600f600086815260200190815260200160002060030181908060018154018082558091505060019003906000526020600020906003020160009091909190915060008201518160000160006101000a81548173ffffffffffffffffffffffffffffffffffffffff021916908373ffffffffffffffffffffffffffffffffffffffff1602179055506020820151816001015560408201518160020190805190602001906120da929190613326565b5050505050505050565b600b60009054906101000a900473ffffffffffffffffffffffffffffffffffffffff1673ffffffffffffffffffffffffffffffffffffffff163373ffffffffffffffffffffffffffffffffffffffff1614612174576040517f08c379a000000000000000000000000000000000000000000000000000000000815260040161216b90614600565b60405180910390fd5b6001600d60008373ffffffffffffffffffffffffffffffffffffffff1673ffffffffffffffffffffffffffffffffffffffff16815260200190815260200160002060006101000a81548160ff02191690831515021790555050565b60006121e5826002612a9c90919063ffffffff16565b9050919050565b600033905090565b816004600083815260200190815260200160002060006101000a81548173ffffffffffffffffffffffffffffffffffffffff021916908373ffffffffffffffffffffffffffffffffffffffff160217905550808273ffffffffffffffffffffffffffffffffffffffff1661226783610b62565b73ffffffffffffffffffffffffffffffffffffffff167f8c5be1e5ebec7d5bd14f71427d1e84f3dd0314c0f7b2291e5b200ac8c7c3b92560405160405180910390a45050565b60006122bb82600001612ab6565b9050919050565b60006122cd826121cf565b61230c576040517f08c379a0000000000000000000000000000000000000000000000000000000008152600401612303906146e0565b60405180910390fd5b600061231783610b62565b90508073ffffffffffffffffffffffffffffffffffffffff168473ffffffffffffffffffffffffffffffffffffffff16148061238657508373ffffffffffffffffffffffffffffffffffffffff1661236e846106e0565b73ffffffffffffffffffffffffffffffffffffffff16145b8061239757506123968185611c4e565b5b91505092915050565b8273ffffffffffffffffffffffffffffffffffffffff166123c082610b62565b73ffffffffffffffffffffffffffffffffffffffff1614612416576040517f08c379a000000000000000000000000000000000000000000000000000000000815260040161240d906147e0565b60405180910390fd5b600073ffffffffffffffffffffffffffffffffffffffff168273ffffffffffffffffffffffffffffffffffffffff161415612486576040517f08c379a000000000000000000000000000000000000000000000000000000000815260040161247d90614680565b60405180910390fd5b612491838383612ac7565b61249c6000826121f4565b6124ed81600160008673ffffffffffffffffffffffffffffffffffffffff1673ffffffffffffffffffffffffffffffffffffffff168152602001908152602001600020612acc90919063ffffffff16565b5061253f81600160008573ffffffffffffffffffffffffffffffffffffffff1673ffffffffffffffffffffffffffffffffffffffff168152602001908152602001600020612ae690919063ffffffff16565b5061255681836002612b009092919063ffffffff16565b50808273ffffffffffffffffffffffffffffffffffffffff168473ffffffffffffffffffffffffffffffffffffffff167fddf252ad1be2c89b69c2b068fc378daa952ba7f163c4a11628f55a4df523b3ef60405160405180910390a4505050565b60006125c68360000183612b35565b60001c905092915050565b6000806000806125e48660000186612ba2565b915091508160001c8160001c9350935050509250929050565b6000612610846000018460001b84612c25565b60001c90509392505050565b600061262a82600001612cb6565b9050919050565b600061263c82610b62565b905061264a81600084612ac7565b6126556000836121f4565b600060086000848152602001908152602001600020805460018160011615610100020316600290049050146126a4576008600083815260200190815260200160002060006126a39190613401565b5b6126f582600160008473ffffffffffffffffffffffffffffffffffffffff1673ffffffffffffffffffffffffffffffffffffffff168152602001908152602001600020612acc90919063ffffffff16565b5061270a826002612cc790919063ffffffff16565b5081600073ffffffffffffffffffffffffffffffffffffffff168273ffffffffffffffffffffffffffffffffffffffff167fddf252ad1be2c89b69c2b068fc378daa952ba7f163c4a11628f55a4df523b3ef60405160405180910390a45050565b6127768484846123a0565b61278284848484612ce1565b6127c1576040517f08c379a00000000000000000000000000000000000000000000000000000000081526004016127b890614620565b60405180910390fd5b50505050565b6060600082141561280f576040518060400160405280600181526020017f30000000000000000000000000000000000000000000000000000000000000008152509050612909565b600082905060005b60008214612839578080600101915050600a828161283157fe5b049150612817565b60608167ffffffffffffffff8111801561285257600080fd5b506040519080825280601f01601f1916602001820160405280156128855781602001600182028036833780820191505090505b50905060006001830390508593505b6000841461290157600a84816128a657fe5b0660300160f81b828280600190039350815181106128c057fe5b60200101907effffffffffffffffffffffffffffffffffffffffffffffffffffffffffffff1916908160001a905350600a84816128f957fe5b049350612894565b819450505050505b919050565b600073ffffffffffffffffffffffffffffffffffffffff168273ffffffffffffffffffffffffffffffffffffffff16141561297e576040517f08c379a000000000000000000000000000000000000000000000000000000000815260040161297590614780565b60405180910390fd5b612987816121cf565b156129c7576040517f08c379a00000000000000000000000000000000000000000000000000000000081526004016129be90614660565b60405180910390fd5b6129d360008383612ac7565b612a2481600160008573ffffffffffffffffffffffffffffffffffffffff1673ffffffffffffffffffffffffffffffffffffffff168152602001908152602001600020612ae690919063ffffffff16565b50612a3b81836002612b009092919063ffffffff16565b50808273ffffffffffffffffffffffffffffffffffffffff16600073ffffffffffffffffffffffffffffffffffffffff167fddf252ad1be2c89b69c2b068fc378daa952ba7f163c4a11628f55a4df523b3ef60405160405180910390a45050565b6000612aae836000018360001b612e45565b905092915050565b600081600001805490509050919050565b505050565b6000612ade836000018360001b612e68565b905092915050565b6000612af8836000018360001b612f50565b905092915050565b6000612b2c846000018460001b8473ffffffffffffffffffffffffffffffffffffffff1660001b612fc0565b90509392505050565b600081836000018054905011612b80576040517f08c379a0000000000000000000000000000000000000000000000000000000008152600401612b77906145e0565b60405180910390fd5b826000018281548110612b8f57fe5b9060005260206000200154905092915050565b60008082846000018054905011612bee576040517f08c379a0000000000000000000000000000000000000000000000000000000008152600401612be590614760565b60405180910390fd5b6000846000018481548110612bff57fe5b906000526020600020906002020190508060000154816001015492509250509250929050565b60008084600101600085815260200190815260200160002054905060008114158390612c87576040517f08c379a0000000000000000000000000000000000000000000000000000000008152600401612c7e91906145be565b60405180910390fd5b50846000016001820381548110612c9a57fe5b9060005260206000209060020201600101549150509392505050565b600081600001805490509050919050565b6000612cd9836000018360001b61309c565b905092915050565b6000612d028473ffffffffffffffffffffffffffffffffffffffff166131b5565b612d0f5760019050612e3d565b6060612dd663150b7a0260e01b612d246121ec565b888787604051602401612d3a9493929190614557565b604051602081830303815290604052907bffffffffffffffffffffffffffffffffffffffffffffffffffffffff19166020820180517bffffffffffffffffffffffffffffffffffffffffffffffffffffffff8381831617835250505050604051806060016040528060328152602001614c44603291398773ffffffffffffffffffffffffffffffffffffffff166131c89092919063ffffffff16565b9050600081806020019051810190612dee9190613844565b905063150b7a0260e01b7bffffffffffffffffffffffffffffffffffffffffffffffffffffffff1916817bffffffffffffffffffffffffffffffffffffffffffffffffffffffff191614925050505b949350505050565b600080836001016000848152602001908152602001600020541415905092915050565b60008083600101600084815260200190815260200160002054905060008114612f445760006001820390506000600186600001805490500390506000866000018281548110612eb357fe5b9060005260206000200154905080876000018481548110612ed057fe5b9060005260206000200181905550600183018760010160008381526020019081526020016000208190555086600001805480612f0857fe5b60019003818190600052602060002001600090559055866001016000878152602001908152602001600020600090556001945050505050612f4a565b60009150505b92915050565b6000612f5c83836131e0565b612fb5578260000182908060018154018082558091505060019003906000526020600020016000909190919091505582600001805490508360010160008481526020019081526020016000208190555060019050612fba565b600090505b92915050565b600080846001016000858152602001908152602001600020549050600081141561306757846000016040518060400160405280868152602001858152509080600181540180825580915050600190039060005260206000209060020201600090919091909150600082015181600001556020820151816001015550508460000180549050856001016000868152602001908152602001600020819055506001915050613095565b8285600001600183038154811061307a57fe5b90600052602060002090600202016001018190555060009150505b9392505050565b600080836001016000848152602001908152602001600020549050600081146131a957600060018203905060006001866000018054905003905060008660000182815481106130e757fe5b906000526020600020906002020190508087600001848154811061310757fe5b906000526020600020906002020160008201548160000155600182015481600101559050506001830187600101600083600001548152602001908152602001600020819055508660000180548061315a57fe5b60019003818190600052602060002090600202016000808201600090556001820160009055505090558660010160008781526020019081526020016000206000905560019450505050506131af565b60009150505b92915050565b600080823b905060008111915050919050565b60606131d78484600085613203565b90509392505050565b600080836001016000848152602001908152602001600020541415905092915050565b606061320e856131b5565b61324d576040517f08c379a000000000000000000000000000000000000000000000000000000000815260040161324490614880565b60405180910390fd5b600060608673ffffffffffffffffffffffffffffffffffffffff1685876040516132779190614501565b60006040518083038185875af1925050503d80600081146132b4576040519150601f19603f3d011682016040523d82523d6000602084013e6132b9565b606091505b509150915081156132ce57809250505061331e565b6000815111156132e15780518082602001fd5b836040517f08c379a000000000000000000000000000000000000000000000000000000000815260040161331591906145be565b60405180910390fd5b949350505050565b828054600181600116156101000203166002900490600052602060002090601f016020900481019282601f1061336757805160ff1916838001178555613395565b82800160010185558215613395579182015b82811115613394578251825591602001919060010190613379565b5b5090506133a29190613449565b5090565b50805460008255600302906000526020600020908101906133c79190613466565b50565b6040518060600160405280600073ffffffffffffffffffffffffffffffffffffffff16815260200160008152602001606081525090565b50805460018160011615610100020316600290046000825580601f106134275750613446565b601f0160209004906000526020600020908101906134459190613449565b5b50565b5b8082111561346257600081600090555060010161344a565b5090565b5b808211156134b857600080820160006101000a81549073ffffffffffffffffffffffffffffffffffffffff021916905560018201600090556002820160006134af9190613401565b50600301613467565b5090565b6000813590506134cb81614be7565b92915050565b6000813590506134e081614bfe565b92915050565b6000813590506134f581614c15565b92915050565b60008151905061350a81614c15565b92915050565b600082601f83011261352157600080fd5b813561353461352f82614997565b61496a565b9150808252602083016020830185838301111561355057600080fd5b61355b838284614b94565b50505092915050565b600082601f83011261357557600080fd5b8135613588613583826149c3565b61496a565b915080825260208301602083018583830111156135a457600080fd5b6135af838284614b94565b50505092915050565b6000813590506135c781614c2c565b92915050565b6000602082840312156135df57600080fd5b60006135ed848285016134bc565b91505092915050565b6000806040838503121561360957600080fd5b6000613617858286016134bc565b9250506020613628858286016134bc565b9150509250929050565b60008060006060848603121561364757600080fd5b6000613655868287016134bc565b9350506020613666868287016134bc565b9250506040613677868287016135b8565b9150509250925092565b6000806000806080858703121561369757600080fd5b60006136a5878288016134bc565b94505060206136b6878288016134bc565b93505060406136c7878288016135b8565b925050606085013567ffffffffffffffff8111156136e457600080fd5b6136f087828801613510565b91505092959194509250565b6000806040838503121561370f57600080fd5b600061371d858286016134bc565b925050602061372e858286016134d1565b9150509250929050565b6000806040838503121561374b57600080fd5b6000613759858286016134bc565b925050602061376a858286016135b8565b9150509250929050565b600080600080600060a0868803121561378c57600080fd5b600061379a888289016134bc565b95505060206137ab888289016135b8565b945050604086013567ffffffffffffffff8111156137c857600080fd5b6137d488828901613564565b935050606086013567ffffffffffffffff8111156137f157600080fd5b6137fd88828901613564565b925050608061380e888289016135b8565b9150509295509295909350565b60006020828403121561382d57600080fd5b600061383b848285016134e6565b91505092915050565b60006020828403121561385657600080fd5b6000613864848285016134fb565b91505092915050565b60006020828403121561387f57600080fd5b600061388d848285016135b8565b91505092915050565b600080600080608085870312156138ac57600080fd5b60006138ba878288016135b8565b94505060206138cb878288016134bc565b935050604085013567ffffffffffffffff8111156138e857600080fd5b6138f487828801613564565b9250506060613905878288016135b8565b91505092959194509250565b600061391d8383613964565b60208301905092915050565b60006139358383613b2c565b905092915050565b600061394983836144e3565b60208301905092915050565b61395e81614b20565b82525050565b61396d81614b0e565b82525050565b61397c81614b0e565b82525050565b600061398d82614a34565b6139978185614a92565b93506139a2836149ef565b8060005b838110156139d35781516139ba8882613911565b97506139c583614a6b565b9250506001810190506139a6565b5085935050505092915050565b60006139eb82614a3f565b6139f58185614aa3565b935083602082028501613a07856149ff565b8060005b85811015613a435784840389528151613a248582613929565b9450613a2f83614a78565b925060208a01995050600181019050613a0b565b50829750879550505050505092915050565b6000613a6082614a4a565b613a6a8185614ab4565b9350613a7583614a0f565b8060005b83811015613aa6578151613a8d888261393d565b9750613a9883614a85565b925050600181019050613a79565b5085935050505092915050565b613abc81614b32565b82525050565b6000613acd82614a55565b613ad78185614ac5565b9350613ae7818560208601614ba3565b613af081614bd6565b840191505092915050565b6000613b0682614a55565b613b108185614ad6565b9350613b20818560208601614ba3565b80840191505092915050565b6000613b3782614a60565b613b418185614ae1565b9350613b51818560208601614ba3565b613b5a81614bd6565b840191505092915050565b6000613b7082614a60565b613b7a8185614af2565b9350613b8a818560208601614ba3565b613b9381614bd6565b840191505092915050565b6000613ba982614a60565b613bb38185614b03565b9350613bc3818560208601614ba3565b80840191505092915050565b600081546001811660008114613bec5760018114613c1157613c55565b607f6002830416613bfd8187614b03565b955060ff1983168652808601935050613c55565b60028204613c1f8187614b03565b9550613c2a85614a1f565b60005b82811015613c4c57815481890152600182019150602081019050613c2d565b82880195505050505b505092915050565b6000613c6a602283614af2565b91507f456e756d657261626c655365743a20696e646578206f7574206f6620626f756e60008301527f64730000000000000000000000000000000000000000000000000000000000006020830152604082019050919050565b6000613cd0602183614af2565b91507f6f6e6c79206f776e65722063616e2063616c6c20746869732066756e6374696f60008301527f6e000000000000000000000000000000000000000000000000000000000000006020830152604082019050919050565b6000613d36603283614af2565b91507f4552433732313a207472616e7366657220746f206e6f6e20455243373231526560008301527f63656976657220696d706c656d656e74657200000000000000000000000000006020830152604082019050919050565b6000613d9c602683614af2565b91507f4f776e61626c653a206e6577206f776e657220697320746865207a65726f206160008301527f64647265737300000000000000000000000000000000000000000000000000006020830152604082019050919050565b6000613e02601c83614af2565b91507f4552433732313a20746f6b656e20616c7265616479206d696e746564000000006000830152602082019050919050565b6000613e42602483614af2565b91507f4552433732313a207472616e7366657220746f20746865207a65726f2061646460008301527f72657373000000000000000000000000000000000000000000000000000000006020830152604082019050919050565b6000613ea8601983614af2565b91507f4552433732313a20617070726f766520746f2063616c6c6572000000000000006000830152602082019050919050565b6000613ee8602283614af2565b91507f6973206e6f7420696e207468652077686974656c69737450756e746f7356656e60008301527f74610000000000000000000000000000000000000000000000000000000000006020830152604082019050919050565b6000613f4e602c83614af2565b91507f4552433732313a206f70657261746f7220717565727920666f72206e6f6e657860008301527f697374656e7420746f6b656e00000000000000000000000000000000000000006020830152604082019050919050565b6000613fb4603883614af2565b91507f4552433732313a20617070726f76652063616c6c6572206973206e6f74206f7760008301527f6e6572206e6f7220617070726f76656420666f7220616c6c00000000000000006020830152604082019050919050565b600061401a602a83614af2565b91507f4552433732313a2062616c616e636520717565727920666f7220746865207a6560008301527f726f2061646472657373000000000000000000000000000000000000000000006020830152604082019050919050565b6000614080602283614af2565b91507f6973206e6f7420696e207468652077686974656c69737450726f647563746f7260008301527f65730000000000000000000000000000000000000000000000000000000000006020830152604082019050919050565b60006140e6602283614af2565b91507f456e756d657261626c654d61703a20696e646578206f7574206f6620626f756e60008301527f64730000000000000000000000000000000000000000000000000000000000006020830152604082019050919050565b600061414c602083614af2565b91507f4552433732313a206d696e7420746f20746865207a65726f20616464726573736000830152602082019050919050565b600061418c602c83614af2565b91507f4552433732313a20617070726f76656420717565727920666f72206e6f6e657860008301527f697374656e7420746f6b656e00000000000000000000000000000000000000006020830152604082019050919050565b60006141f2602083614af2565b91507f4f776e61626c653a2063616c6c6572206973206e6f7420746865206f776e65726000830152602082019050919050565b6000614232602983614af2565b91507f4552433732313a207472616e73666572206f6620746f6b656e2074686174206960008301527f73206e6f74206f776e00000000000000000000000000000000000000000000006020830152604082019050919050565b6000614298602f83614af2565b91507f4552433732314d657461646174613a2055524920717565727920666f72206e6f60008301527f6e6578697374656e7420746f6b656e00000000000000000000000000000000006020830152604082019050919050565b60006142fe601883614af2565b91507f74686520746f6b656e20646f65736e27742065786973747300000000000000006000830152602082019050919050565b600061433e602183614af2565b91507f4552433732313a20617070726f76616c20746f2063757272656e74206f776e6560008301527f72000000000000000000000000000000000000000000000000000000000000006020830152604082019050919050565b60006143a4603183614af2565b91507f4552433732313a207472616e736665722063616c6c6572206973206e6f74206f60008301527f776e6572206e6f7220617070726f7665640000000000000000000000000000006020830152604082019050919050565b600061440a601d83614af2565b91507f416464726573733a2063616c6c20746f206e6f6e2d636f6e74726163740000006000830152602082019050919050565b600061444a601083614af2565b91507f6973206e6f7420746865206f776e6572000000000000000000000000000000006000830152602082019050919050565b600061448a602383614af2565b91507f6973206e6f7420696e207468652057686974656c697374436f6d65726369616e60008301527f74657300000000000000000000000000000000000000000000000000000000006020830152604082019050919050565b6144ec81614b8a565b82525050565b6144fb81614b8a565b82525050565b600061450d8284613afb565b915081905092915050565b60006145248285613bcf565b91506145308284613b9e565b91508190509392505050565b60006020820190506145516000830184613973565b92915050565b600060808201905061456c6000830187613955565b6145796020830186613973565b61458660408301856144f2565b81810360608301526145988184613ac2565b905095945050505050565b60006020820190506145b86000830184613ab3565b92915050565b600060208201905081810360008301526145d88184613b65565b905092915050565b600060208201905081810360008301526145f981613c5d565b9050919050565b6000602082019050818103600083015261461981613cc3565b9050919050565b6000602082019050818103600083015261463981613d29565b9050919050565b6000602082019050818103600083015261465981613d8f565b9050919050565b6000602082019050818103600083015261467981613df5565b9050919050565b6000602082019050818103600083015261469981613e35565b9050919050565b600060208201905081810360008301526146b981613e9b565b9050919050565b600060208201905081810360008301526146d981613edb565b9050919050565b600060208201905081810360008301526146f981613f41565b9050919050565b6000602082019050818103600083015261471981613fa7565b9050919050565b600060208201905081810360008301526147398161400d565b9050919050565b6000602082019050818103600083015261475981614073565b9050919050565b60006020820190508181036000830152614779816140d9565b9050919050565b600060208201905081810360008301526147998161413f565b9050919050565b600060208201905081810360008301526147b98161417f565b9050919050565b600060208201905081810360008301526147d9816141e5565b9050919050565b600060208201905081810360008301526147f981614225565b9050919050565b600060208201905081810360008301526148198161428b565b9050919050565b60006020820190508181036000830152614839816142f1565b9050919050565b6000602082019050818103600083015261485981614331565b9050919050565b6000602082019050818103600083015261487981614397565b9050919050565b60006020820190508181036000830152614899816143fd565b9050919050565b600060208201905081810360008301526148b98161443d565b9050919050565b600060208201905081810360008301526148d98161447d565b9050919050565b60006020820190506148f560008301846144f2565b92915050565b600060a08201905061491060008301886144f2565b81810360208301526149228187613b65565b905081810360408301526149368186613982565b9050818103606083015261494a8185613a55565b9050818103608083015261495e81846139e0565b90509695505050505050565b6000604051905081810181811067ffffffffffffffff8211171561498d57600080fd5b8060405250919050565b600067ffffffffffffffff8211156149ae57600080fd5b601f19601f8301169050602081019050919050565b600067ffffffffffffffff8211156149da57600080fd5b601f19601f8301169050602081019050919050565b6000819050602082019050919050565b6000819050602082019050919050565b6000819050602082019050919050565b60008190508160005260206000209050919050565b600081519050919050565b600081519050919050565b600081519050919050565b600081519050919050565b600081519050919050565b6000602082019050919050565b6000602082019050919050565b6000602082019050919050565b600082825260208201905092915050565b600082825260208201905092915050565b600082825260208201905092915050565b600082825260208201905092915050565b600081905092915050565b600082825260208201905092915050565b600082825260208201905092915050565b600081905092915050565b6000614b1982614b6a565b9050919050565b6000614b2b82614b6a565b9050919050565b60008115159050919050565b60007fffffffff0000000000000000000000000000000000000000000000000000000082169050919050565b600073ffffffffffffffffffffffffffffffffffffffff82169050919050565b6000819050919050565b82818337600083830152505050565b60005b83811015614bc1578082015181840152602081019050614ba6565b83811115614bd0576000848401525b50505050565b6000601f19601f8301169050919050565b614bf081614b0e565b8114614bfb57600080fd5b50565b614c0781614b32565b8114614c1257600080fd5b50565b614c1e81614b3e565b8114614c2957600080fd5b50565b614c3581614b8a565b8114614c4057600080fd5b5056fe4552433732313a207472616e7366657220746f206e6f6e20455243373231526563656976657220696d706c656d656e7465724552433732313a206f776e657220717565727920666f72206e6f6e6578697374656e7420746f6b656ea264697066735822122069659d4ee4a63e105f8792709e63fd3f9707197c923ca74cca984fa9d844aba564736f6c634300060c0033",
  "immutableReferences": {},
  "source": "// SPDX-License-Identifier: MIT\npragma solidity >=0.4.25 <0.7.0;\npragma experimental ABIEncoderV2;\n\nimport \"./ConvertLib.sol\";\n// This is just a simple example of a coin-like contract.\n// It is not standards compatible and cannot be expected to talk to other\n// coin/token contracts. If you want to create a standards-compliant\n// token, see: https://github.com/ConsenSys/Tokens. Cheers!\n\n\nimport \"@openzeppelin/contracts/token/ERC721/ERC721.sol\";\nimport \"@openzeppelin/contracts/access/Ownable.sol\";\nimport \"@openzeppelin/contracts/math/math.sol\";\n\ncontract Cajon is ERC721, Ownable {\n    address duenio = 0xAECdb05ADC1211Ed022D2A5a648D9a4fd45F40F0; \n\n    struct UnidadCajon {\n        uint256 id;\n        string tipoContenido;\n        bool exists;\n        puntoCadena[] trayecto;\n    }\n\n    struct puntoCadena{\n        address addressLector;\n        uint256 fecha;\n        string nombreComercial;\n    }\n\n    mapping(address => bool) whitelistProductores;\n    mapping(address => bool) whitelistPuntosVenta;\n    mapping(address => bool) whitelistDistribuidores;\n    mapping(uint256 => UnidadCajon) items;\n\n    constructor() ERC721(\"My ERC721 Token\", \"MET1\")  public {\n        \n    }\n\n    modifier soloDuenio(){\n        require(msg.sender == duenio,\"only owner can call this function\");\n        _;\n    }\n\n    modifier isInWhitelistProductores(){\n        require(whitelistProductores[msg.sender]==true, \"is not in the whitelistProductores\");\n        _;\n    }\n\n    modifier isInWhitelistComerciantes(){\n        require(whitelistDistribuidores[msg.sender]==true || whitelistPuntosVenta[msg.sender]==true || whitelistProductores[msg.sender]==true, \"is not in the WhitelistComerciantes\");\n        _;\n    }\n\n    modifier isInWhitelistPuntosVenta(){\n        require(whitelistPuntosVenta[msg.sender]==true, \"is not in the whitelistPuntosVenta\");\n        _;\n    }\n\n    modifier isInWhitelistDistribuidores(){\n        require(whitelistDistribuidores[msg.sender]==true, \"is not in the whitelistDistribuidores\");\n        _;\n    }\n\n    function crearCajon(address addressProductor, uint256 tokenId, string memory tipoContenido, string memory nombreComercialProductor, uint256 fecha) isInWhitelistProductores public {\n        _mint(addressProductor, tokenId);\n        items[tokenId].id = tokenId;\n        items[tokenId].tipoContenido = tipoContenido;\n        items[tokenId].exists = true;\n        agregarPuntoCadena(tokenId,addressProductor,nombreComercialProductor,fecha);\n    }\n\n\n    function obtenerCajon(uint256 tokenId) public view returns(uint256, string memory, address[] memory,\n        uint256[] memory, string[] memory) {\n        require(items[tokenId].exists, \"the token doesn't exists\");\n\n        address[] memory addrs = new address[](items[tokenId].trayecto.length);\n        uint[] memory fechas = new uint[](items[tokenId].trayecto.length);\n        string[] memory nombres = new string[](items[tokenId].trayecto.length);\n\n        for(uint i=0; i<items[tokenId].trayecto.length; i++){\n            puntoCadena storage ptoCadena = items[tokenId].trayecto[i];\n            addrs[i] = ptoCadena.addressLector;\n            fechas[i] = ptoCadena.fecha;\n            nombres[i] = ptoCadena.nombreComercial;\n        }\n        return (items[tokenId].id, items[tokenId].tipoContenido, addrs, fechas, nombres);\n    }\n\n    function destruirCajon(uint256 tokenId) isInWhitelistPuntosVenta public {\n        require(ownerOf(tokenId) == msg.sender, \"is not the owner\");\n        _burn(tokenId);\n        items[tokenId].id = 0;\n        items[tokenId].tipoContenido = '';\n        delete items[tokenId].trayecto;\n        items[tokenId].exists = false;\n    }\n\n    function agregarPuntoCadena(uint256 tokenId, address addressLector, string memory nombreComercial, uint256 fecha) isInWhitelistComerciantes public {\n        puntoCadena memory nuevoPuntoCadena = puntoCadena({addressLector: addressLector, fecha: fecha, nombreComercial: nombreComercial});\n        items[tokenId].trayecto.push(nuevoPuntoCadena);\n    }\n\n    function addToWhitelistProductores(address account) soloDuenio public{\n        whitelistProductores[account] = true;\n    }\n\n    function addToWhitelistPuntosVenta(address account) soloDuenio public{\n        whitelistPuntosVenta[account] = true;\n    }\n    \n    function addToWhitelistDistribuidores(address account) soloDuenio public{\n        whitelistDistribuidores[account] = true;\n    }\n\n     function removeFromWhitelistProductores(address account) soloDuenio public{\n        whitelistProductores[account] = false;\n    }\n\n    function removeFromWhitelistPuntosVenta(address account) soloDuenio public{\n        whitelistPuntosVenta[account] = false;\n    }\n\n    function removeFromWhitelistDistribuidores(address account) soloDuenio public{\n        whitelistDistribuidores[account] = false;\n    }\n    \n}\n",
  "sourcePath": "/Users/stephaniemendonca/Documents/GitHub/blockchain_food_tracking/contracts/Cajon.sol",
  "compiler": {
    "name": "solc",
    "version": "0.6.12+commit.27d51765.Emscripten.clang"
  },
  "schemaVersion": "3.3.1",
  "updatedAt": "2020-11-20T01:23:18.964Z",
  "networkType": "ethereum",
  "devdoc": {
    "kind": "dev",
    "methods": {
      "approve(address,uint256)": {
        "details": "See {IERC721-approve}."
      },
      "balanceOf(address)": {
        "details": "See {IERC721-balanceOf}."
      },
      "baseURI()": {
        "details": "Returns the base URI set via {_setBaseURI}. This will be automatically added as a prefix in {tokenURI} to each token's URI, or to the token ID if no specific URI is set for that token ID."
      },
      "getApproved(uint256)": {
        "details": "See {IERC721-getApproved}."
      },
      "isApprovedForAll(address,address)": {
        "details": "See {IERC721-isApprovedForAll}."
      },
      "name()": {
        "details": "See {IERC721Metadata-name}."
      },
      "owner()": {
        "details": "Returns the address of the current owner."
      },
      "ownerOf(uint256)": {
        "details": "See {IERC721-ownerOf}."
      },
      "renounceOwnership()": {
        "details": "Leaves the contract without owner. It will not be possible to call `onlyOwner` functions anymore. Can only be called by the current owner. NOTE: Renouncing ownership will leave the contract without an owner, thereby removing any functionality that is only available to the owner."
      },
      "safeTransferFrom(address,address,uint256)": {
        "details": "See {IERC721-safeTransferFrom}."
      },
      "safeTransferFrom(address,address,uint256,bytes)": {
        "details": "See {IERC721-safeTransferFrom}."
      },
      "setApprovalForAll(address,bool)": {
        "details": "See {IERC721-setApprovalForAll}."
      },
      "supportsInterface(bytes4)": {
        "details": "See {IERC165-supportsInterface}. Time complexity O(1), guaranteed to always use less than 30 000 gas."
      },
      "symbol()": {
        "details": "See {IERC721Metadata-symbol}."
      },
      "tokenByIndex(uint256)": {
        "details": "See {IERC721Enumerable-tokenByIndex}."
      },
      "tokenOfOwnerByIndex(address,uint256)": {
        "details": "See {IERC721Enumerable-tokenOfOwnerByIndex}."
      },
      "tokenURI(uint256)": {
        "details": "See {IERC721Metadata-tokenURI}."
      },
      "totalSupply()": {
        "details": "See {IERC721Enumerable-totalSupply}."
      },
      "transferFrom(address,address,uint256)": {
        "details": "See {IERC721-transferFrom}."
      },
      "transferOwnership(address)": {
        "details": "Transfers ownership of the contract to a new account (`newOwner`). Can only be called by the current owner."
      }
    },
    "version": 1
  },
  "userdoc": {
    "kind": "user",
    "methods": {},
    "version": 1
  }
}