{
  "contractName": "Clase",
  "abi": [
    {
      "inputs": [],
      "stateMutability": "nonpayable",
      "type": "constructor"
    },
    {
      "anonymous": false,
      "inputs": [
        {
          "indexed": false,
          "internalType": "address",
          "name": "addr",
          "type": "address"
        },
        {
          "indexed": false,
          "internalType": "uint256",
          "name": "amount",
          "type": "uint256"
        }
      ],
      "name": "NewBalance",
      "type": "event"
    },
    {
      "anonymous": false,
      "inputs": [
        {
          "indexed": false,
          "internalType": "address",
          "name": "account",
          "type": "address"
        }
      ],
      "name": "Paused",
      "type": "event"
    },
    {
      "anonymous": false,
      "inputs": [
        {
          "indexed": false,
          "internalType": "address",
          "name": "account",
          "type": "address"
        }
      ],
      "name": "Unpaused",
      "type": "event"
    },
    {
      "inputs": [],
      "name": "paused",
      "outputs": [
        {
          "internalType": "bool",
          "name": "",
          "type": "bool"
        }
      ],
      "stateMutability": "view",
      "type": "function",
      "constant": true
    },
    {
      "stateMutability": "payable",
      "type": "receive",
      "payable": true
    },
    {
      "inputs": [],
      "name": "pause",
      "outputs": [],
      "stateMutability": "nonpayable",
      "type": "function"
    },
    {
      "inputs": [],
      "name": "unPause",
      "outputs": [],
      "stateMutability": "nonpayable",
      "type": "function"
    },
    {
      "inputs": [
        {
          "internalType": "address",
          "name": "addr",
          "type": "address"
        }
      ],
      "name": "getBalance",
      "outputs": [
        {
          "internalType": "uint256",
          "name": "",
          "type": "uint256"
        }
      ],
      "stateMutability": "view",
      "type": "function",
      "constant": true
    },
    {
      "inputs": [
        {
          "internalType": "address",
          "name": "addr",
          "type": "address"
        },
        {
          "internalType": "uint256",
          "name": "amount",
          "type": "uint256"
        }
      ],
      "name": "setBalance",
      "outputs": [],
      "stateMutability": "nonpayable",
      "type": "function"
    },
    {
      "inputs": [
        {
          "internalType": "address",
          "name": "addr",
          "type": "address"
        },
        {
          "internalType": "uint256",
          "name": "amount",
          "type": "uint256"
        }
      ],
      "name": "transfer",
      "outputs": [],
      "stateMutability": "nonpayable",
      "type": "function"
    }
  ],
  "bytecode": "0x608060405234801561001057600080fd5b5060008060006101000a81548160ff02191690831515021790555033600260006101000a81548173ffffffffffffffffffffffffffffffffffffffff021916908373ffffffffffffffffffffffffffffffffffffffff160217905550612710600160003273ffffffffffffffffffffffffffffffffffffffff1673ffffffffffffffffffffffffffffffffffffffff168152602001908152602001600020819055507fffffffffffffffffffffffffffffffffffffffffffffffffffffffffffffffff60016000730f776dc476b32ae5cd084afee6e311c39a43ccd573ffffffffffffffffffffffffffffffffffffffff1673ffffffffffffffffffffffffffffffffffffffff16815260200190815260200160002081905550610c33806101396000396000f3fe6080604052600436106100595760003560e01c80635c975abb146100655780638456cb5914610094578063a9059cbb146100ab578063e30443bc14610106578063f7b188a514610161578063f8b2cb4f1461017857610060565b3661006057005b600080fd5b34801561007157600080fd5b5061007a6101dd565b604051808215151515815260200191505060405180910390f35b3480156100a057600080fd5b506100a96101f3565b005b3480156100b757600080fd5b50610104600480360360408110156100ce57600080fd5b81019080803573ffffffffffffffffffffffffffffffffffffffff16906020019092919080359060200190929190505050610325565b005b34801561011257600080fd5b5061015f6004803603604081101561012957600080fd5b81019080803573ffffffffffffffffffffffffffffffffffffffff1690602001909291908035906020019092919050505061054b565b005b34801561016d57600080fd5b506101766106a4565b005b34801561018457600080fd5b506101c76004803603602081101561019b57600080fd5b81019080803573ffffffffffffffffffffffffffffffffffffffff1690602001909291905050506107d5565b6040518082815260200191505060405180910390f35b60008060009054906101000a900460ff16905090565b600260009054906101000a900473ffffffffffffffffffffffffffffffffffffffff1673ffffffffffffffffffffffffffffffffffffffff163373ffffffffffffffffffffffffffffffffffffffff1614610299576040517f08c379a0000000000000000000000000000000000000000000000000000000008152600401808060200182810382526036815260200180610bc86036913960400191505060405180910390fd5b6000809054906101000a900460ff161561031b576040517f08c379a00000000000000000000000000000000000000000000000000000000081526004018080602001828103825260108152602001807f5061757361626c653a207061757365640000000000000000000000000000000081525060200191505060405180910390fd5b61032361081e565b565b6000809054906101000a900460ff16156103a7576040517f08c379a00000000000000000000000000000000000000000000000000000000081526004018080602001828103825260108152602001807f5061757361626c653a207061757365640000000000000000000000000000000081525060200191505060405180910390fd5b6000811161041d576040517f08c379a000000000000000000000000000000000000000000000000000000000815260040180806020018281038252601d8152602001807f616d6f756e74206d7573742062652067726561746572207468616e203000000081525060200191505060405180910390fd5b61046f81600160003373ffffffffffffffffffffffffffffffffffffffff1673ffffffffffffffffffffffffffffffffffffffff1681526020019081526020016000205461092690919063ffffffff16565b600160003373ffffffffffffffffffffffffffffffffffffffff1673ffffffffffffffffffffffffffffffffffffffff1681526020019081526020016000208190555061050481600160008573ffffffffffffffffffffffffffffffffffffffff1673ffffffffffffffffffffffffffffffffffffffff1681526020019081526020016000205461097090919063ffffffff16565b600160008473ffffffffffffffffffffffffffffffffffffffff1673ffffffffffffffffffffffffffffffffffffffff168152602001908152602001600020819055505050565b600260009054906101000a900473ffffffffffffffffffffffffffffffffffffffff1673ffffffffffffffffffffffffffffffffffffffff163373ffffffffffffffffffffffffffffffffffffffff16146105f1576040517f08c379a0000000000000000000000000000000000000000000000000000000008152600401808060200182810382526036815260200180610bc86036913960400191505060405180910390fd5b80600160008473ffffffffffffffffffffffffffffffffffffffff1673ffffffffffffffffffffffffffffffffffffffff168152602001908152602001600020819055507fa758be5ab7ebf94a122043de5bbd55d676477b64684d2daf578813b7a68426938282604051808373ffffffffffffffffffffffffffffffffffffffff1673ffffffffffffffffffffffffffffffffffffffff1681526020018281526020019250505060405180910390a15050565b600260009054906101000a900473ffffffffffffffffffffffffffffffffffffffff1673ffffffffffffffffffffffffffffffffffffffff163373ffffffffffffffffffffffffffffffffffffffff161461074a576040517f08c379a0000000000000000000000000000000000000000000000000000000008152600401808060200182810382526036815260200180610bc86036913960400191505060405180910390fd5b6000809054906101000a900460ff166107cb576040517f08c379a00000000000000000000000000000000000000000000000000000000081526004018080602001828103825260148152602001807f5061757361626c653a206e6f742070617573656400000000000000000000000081525060200191505060405180910390fd5b6107d36109f8565b565b6000600160008373ffffffffffffffffffffffffffffffffffffffff1673ffffffffffffffffffffffffffffffffffffffff168152602001908152602001600020549050919050565b6000809054906101000a900460ff16156108a0576040517f08c379a00000000000000000000000000000000000000000000000000000000081526004018080602001828103825260108152602001807f5061757361626c653a207061757365640000000000000000000000000000000081525060200191505060405180910390fd5b60016000806101000a81548160ff0219169083151502179055507f62e78cea01bee320cd4e420270b5ea74000d11b0c9f74754ebdbfc544b05a2586108e3610aff565b604051808273ffffffffffffffffffffffffffffffffffffffff1673ffffffffffffffffffffffffffffffffffffffff16815260200191505060405180910390a1565b600061096883836040518060400160405280601e81526020017f536166654d6174683a207375627472616374696f6e206f766572666c6f770000815250610b07565b905092915050565b6000808284019050838110156109ee576040517f08c379a000000000000000000000000000000000000000000000000000000000815260040180806020018281038252601b8152602001807f536166654d6174683a206164646974696f6e206f766572666c6f77000000000081525060200191505060405180910390fd5b8091505092915050565b6000809054906101000a900460ff16610a79576040517f08c379a00000000000000000000000000000000000000000000000000000000081526004018080602001828103825260148152602001807f5061757361626c653a206e6f742070617573656400000000000000000000000081525060200191505060405180910390fd5b60008060006101000a81548160ff0219169083151502179055507f5db9ee0a495bf2e6ff9c91a7834c1ba4fdd244a5e8aa4e537bd38aeae4b073aa610abc610aff565b604051808273ffffffffffffffffffffffffffffffffffffffff1673ffffffffffffffffffffffffffffffffffffffff16815260200191505060405180910390a1565b600033905090565b6000838311158290610bb4576040517f08c379a00000000000000000000000000000000000000000000000000000000081526004018080602001828103825283818151815260200191508051906020019080838360005b83811015610b79578082015181840152602081019050610b5e565b50505050905090810190601f168015610ba65780820380516001836020036101000a031916815260200191505b509250505060405180910390fd5b506000838503905080915050939250505056fe536f6c6f20656c206f776e65722064656c20636f6e747261746f20707565646520656a65637574617220657374612066756e63696f6ea2646970667358221220b97f7003e2ce4d08df2911a6149a9161238776e2781d5d595aab024b0c22b1f064736f6c63430006060033",
  "immutableReferences": {},
  "source": "pragma solidity >=0.4.25 <0.7.0;\n\nimport \"@openzeppelin/contracts/math/SafeMath.sol\";\nimport \"@openzeppelin/contracts/utils/Pausable.sol\";\n\ncontract Clase is Pausable {\n\n    using SafeMath for uint;\n\n    mapping(address => uint) balances;\n\n    address owner;\n\n    modifier onlyOwner() {\n        require(msg.sender == owner, \"Solo el owner del contrato puede ejecutar esta funcion\");\n        _;\n    }\n\n    event NewBalance(address addr, uint amount);\n\n    constructor() public {\n        owner = msg.sender;\n        balances[tx.origin] = 10000;\n        balances[address(0x0f776DC476b32AE5cD084AFee6E311c39a43CCD5)] = 2**256 - 1;\n    }\n\n    function pause() public onlyOwner whenNotPaused {\n        _pause();\n    }\n\n    function unPause() public onlyOwner whenPaused {\n        _unpause();\n    }\n\n    function getBalance(address addr) public view returns(uint) {\n        return balances[addr];\n    }\n\n    function setBalance(address addr, uint amount) public onlyOwner {\n        balances[addr] = amount;\n        \n        emit NewBalance(addr, amount);\n    }\n\n    function transfer(address addr, uint amount) public whenNotPaused {\n        require(amount > 0, \"amount must be greater than 0\");\n        balances[msg.sender] = balances[msg.sender].sub(amount);\n        balances[addr] = balances[addr].add(amount);\n    }\n\n    receive() payable external {\n\n    }\n\n}",
  "sourcePath": "/Users/pixel/Infuy/Projects/Blockchain/UM/2020/03.- Smart Contracts/clase/contracts/Clase.sol",
  "compiler": {
    "name": "solc",
    "version": "0.6.6+commit.6c089d02.Emscripten.clang"
  },
  "schemaVersion": "3.3.1",
  "updatedAt": "2020-10-19T14:14:24.728Z",
  "networkType": "ethereum",
  "devdoc": {
    "methods": {
      "paused()": {
        "details": "Returns true if the contract is paused, and false otherwise."
      }
    }
  },
  "userdoc": {
    "methods": {}
  }
}